{"abi":[{"type":"constructor","inputs":[],"stateMutability":"nonpayable"},{"type":"function","name":"TOKEN_PRICE","inputs":[],"outputs":[{"name":"","type":"uint256","internalType":"uint256"}],"stateMutability":"view"},{"type":"function","name":"allowance","inputs":[{"name":"owner","type":"address","internalType":"address"},{"name":"spender","type":"address","internalType":"address"}],"outputs":[{"name":"","type":"uint256","internalType":"uint256"}],"stateMutability":"view"},{"type":"function","name":"approve","inputs":[{"name":"spender","type":"address","internalType":"address"},{"name":"value","type":"uint256","internalType":"uint256"}],"outputs":[{"name":"","type":"bool","internalType":"bool"}],"stateMutability":"nonpayable"},{"type":"function","name":"balanceOf","inputs":[{"name":"account","type":"address","internalType":"address"}],"outputs":[{"name":"","type":"uint256","internalType":"uint256"}],"stateMutability":"view"},{"type":"function","name":"buy","inputs":[{"name":"amount","type":"uint256","internalType":"uint256"}],"outputs":[],"stateMutability":"payable"},{"type":"function","name":"decimals","inputs":[],"outputs":[{"name":"","type":"uint8","internalType":"uint8"}],"stateMutability":"view"},{"type":"function","name":"mint","inputs":[{"name":"to","type":"address","internalType":"address"},{"name":"amount","type":"uint256","internalType":"uint256"}],"outputs":[],"stateMutability":"nonpayable"},{"type":"function","name":"mint","inputs":[{"name":"amount","type":"uint256","internalType":"uint256"}],"outputs":[],"stateMutability":"nonpayable"},{"type":"function","name":"name","inputs":[],"outputs":[{"name":"","type":"string","internalType":"string"}],"stateMutability":"view"},{"type":"function","name":"owner","inputs":[],"outputs":[{"name":"","type":"address","internalType":"address"}],"stateMutability":"view"},{"type":"function","name":"renounceOwnership","inputs":[],"outputs":[],"stateMutability":"nonpayable"},{"type":"function","name":"s_stakeContract","inputs":[],"outputs":[{"name":"","type":"address","internalType":"address"}],"stateMutability":"view"},{"type":"function","name":"setStakingContract","inputs":[{"name":"_contract","type":"address","internalType":"address"}],"outputs":[],"stateMutability":"nonpayable"},{"type":"function","name":"symbol","inputs":[],"outputs":[{"name":"","type":"string","internalType":"string"}],"stateMutability":"view"},{"type":"function","name":"totalSupply","inputs":[],"outputs":[{"name":"","type":"uint256","internalType":"uint256"}],"stateMutability":"view"},{"type":"function","name":"transfer","inputs":[{"name":"to","type":"address","internalType":"address"},{"name":"value","type":"uint256","internalType":"uint256"}],"outputs":[{"name":"","type":"bool","internalType":"bool"}],"stateMutability":"nonpayable"},{"type":"function","name":"transferFrom","inputs":[{"name":"from","type":"address","internalType":"address"},{"name":"to","type":"address","internalType":"address"},{"name":"value","type":"uint256","internalType":"uint256"}],"outputs":[{"name":"","type":"bool","internalType":"bool"}],"stateMutability":"nonpayable"},{"type":"function","name":"transferOwnership","inputs":[{"name":"newOwner","type":"address","internalType":"address"}],"outputs":[],"stateMutability":"nonpayable"},{"type":"event","name":"Approval","inputs":[{"name":"owner","type":"address","indexed":true,"internalType":"address"},{"name":"spender","type":"address","indexed":true,"internalType":"address"},{"name":"value","type":"uint256","indexed":false,"internalType":"uint256"}],"anonymous":false},{"type":"event","name":"OwnershipTransferred","inputs":[{"name":"previousOwner","type":"address","indexed":true,"internalType":"address"},{"name":"newOwner","type":"address","indexed":true,"internalType":"address"}],"anonymous":false},{"type":"event","name":"StakingContractSet","inputs":[{"name":"stakingContract","type":"address","indexed":true,"internalType":"address"}],"anonymous":false},{"type":"event","name":"TokensBought","inputs":[{"name":"buyer","type":"address","indexed":true,"internalType":"address"},{"name":"amount","type":"uint256","indexed":false,"internalType":"uint256"},{"name":"totalCost","type":"uint256","indexed":false,"internalType":"uint256"}],"anonymous":false},{"type":"event","name":"TokensMinted","inputs":[{"name":"to","type":"address","indexed":true,"internalType":"address"},{"name":"amount","type":"uint256","indexed":false,"internalType":"uint256"}],"anonymous":false},{"type":"event","name":"Transfer","inputs":[{"name":"from","type":"address","indexed":true,"internalType":"address"},{"name":"to","type":"address","indexed":true,"internalType":"address"},{"name":"value","type":"uint256","indexed":false,"internalType":"uint256"}],"anonymous":false},{"type":"error","name":"ERC20InsufficientAllowance","inputs":[{"name":"spender","type":"address","internalType":"address"},{"name":"allowance","type":"uint256","internalType":"uint256"},{"name":"needed","type":"uint256","internalType":"uint256"}]},{"type":"error","name":"ERC20InsufficientBalance","inputs":[{"name":"sender","type":"address","internalType":"address"},{"name":"balance","type":"uint256","internalType":"uint256"},{"name":"needed","type":"uint256","internalType":"uint256"}]},{"type":"error","name":"ERC20InvalidApprover","inputs":[{"name":"approver","type":"address","internalType":"address"}]},{"type":"error","name":"ERC20InvalidReceiver","inputs":[{"name":"receiver","type":"address","internalType":"address"}]},{"type":"error","name":"ERC20InvalidSender","inputs":[{"name":"sender","type":"address","internalType":"address"}]},{"type":"error","name":"ERC20InvalidSpender","inputs":[{"name":"spender","type":"address","internalType":"address"}]},{"type":"error","name":"OwnableInvalidOwner","inputs":[{"name":"owner","type":"address","internalType":"address"}]},{"type":"error","name":"OwnableUnauthorizedAccount","inputs":[{"name":"account","type":"address","internalType":"address"}]}],"bytecode":{"object":"0x60a0604052655af3107a400060805234801561001a57600080fd5b50336040518060400160405280600d81526020016c21b0b921b430b4b72a37b5b2b760991b8152506040518060400160405280600381526020016210d0d560ea1b815250816003908161006d9190610336565b50600461007a8282610336565b5050506001600160a01b0381166100ac57604051631e4fbdf760e01b8152600060048201526024015b60405180910390fd5b6100b5816100e1565b506100dc6100cb6005546001600160a01b031690565b6a108b2a2c28029094000000610133565b61041b565b600580546001600160a01b038381166001600160a01b0319831681179093556040519116919082907f8be0079c531659141344cd1fd0a4f28419497f9722a3daafe3b4186f6b6457e090600090a35050565b6001600160a01b03821661015d5760405163ec442f0560e01b8152600060048201526024016100a3565b6101696000838361016d565b5050565b6001600160a01b03831661019857806002600082825461018d91906103f4565b9091555061020a9050565b6001600160a01b038316600090815260208190526040902054818110156101eb5760405163391434e360e21b81526001600160a01b038516600482015260248101829052604481018390526064016100a3565b6001600160a01b03841660009081526020819052604090209082900390555b6001600160a01b03821661022657600280548290039055610245565b6001600160a01b03821660009081526020819052604090208054820190555b816001600160a01b0316836001600160a01b03167fddf252ad1be2c89b69c2b068fc378daa952ba7f163c4a11628f55a4df523b3ef8360405161028a91815260200190565b60405180910390a3505050565b634e487b7160e01b600052604160045260246000fd5b600181811c908216806102c157607f821691505b6020821081036102e157634e487b7160e01b600052602260045260246000fd5b50919050565b601f82111561033157806000526020600020601f840160051c8101602085101561030e5750805b601f840160051c820191505b8181101561032e576000815560010161031a565b50505b505050565b81516001600160401b0381111561034f5761034f610297565b6103638161035d84546102ad565b846102e7565b6020601f821160018114610397576000831561037f5750848201515b600019600385901b1c1916600184901b17845561032e565b600084815260208120601f198516915b828110156103c757878501518255602094850194600190920191016103a7565b50848210156103e55786840151600019600387901b60f8161c191681555b50505050600190811b01905550565b8082018082111561041557634e487b7160e01b600052601160045260246000fd5b92915050565b608051610c3b61043d6000396000818161030a01526105bf0152610c3b6000f3fe6080604052600436106101095760003560e01c806395d89b4111610095578063a9059cbb11610064578063a9059cbb146102d8578063d2d8cb67146102f8578063d96a094a1461032c578063dd62ed3e1461033f578063f2fde38b1461038557600080fd5b806395d89b411461026357806395deb0ba146102785780639dd373b914610298578063a0712d68146102b857600080fd5b8063313ce567116100dc578063313ce567146101a857806340c10f19146101c457806370a08231146101e6578063715018a61461021c5780638da5cb5b1461023157600080fd5b806306fdde031461010e578063095ea7b31461013957806318160ddd1461016957806323b872dd14610188575b600080fd5b34801561011a57600080fd5b506101236103a5565b6040516101309190610a4c565b60405180910390f35b34801561014557600080fd5b50610159610154366004610ab6565b610437565b6040519015158152602001610130565b34801561017557600080fd5b506002545b604051908152602001610130565b34801561019457600080fd5b506101596101a3366004610ae0565b610451565b3480156101b457600080fd5b5060405160128152602001610130565b3480156101d057600080fd5b506101e46101df366004610ab6565b610475565b005b3480156101f257600080fd5b5061017a610201366004610b1d565b6001600160a01b031660009081526020819052604090205490565b34801561022857600080fd5b506101e46104ce565b34801561023d57600080fd5b506005546001600160a01b03165b6040516001600160a01b039091168152602001610130565b34801561026f57600080fd5b506101236104e2565b34801561028457600080fd5b5060065461024b906001600160a01b031681565b3480156102a457600080fd5b506101e46102b3366004610b1d565b6104f1565b3480156102c457600080fd5b506101e46102d3366004610b3f565b610543565b3480156102e457600080fd5b506101596102f3366004610ab6565b6105ac565b34801561030457600080fd5b5061017a7f000000000000000000000000000000000000000000000000000000000000000081565b6101e461033a366004610b3f565b6105ba565b34801561034b57600080fd5b5061017a61035a366004610b58565b6001600160a01b03918216600090815260016020908152604080832093909416825291909152205490565b34801561039157600080fd5b506101e46103a0366004610b1d565b61066a565b6060600380546103b490610b8b565b80601f01602080910402602001604051908101604052809291908181526020018280546103e090610b8b565b801561042d5780601f106104025761010080835404028352916020019161042d565b820191906000526020600020905b81548152906001019060200180831161041057829003601f168201915b5050505050905090565b6000336104458185856106a5565b60019150505b92915050565b60003361045f8582856106b7565b61046a858585610735565b506001949350505050565b61047d610794565b61048782826107c1565b816001600160a01b03167f3f2c9d57c068687834f0de942a9babb9e5acab57d516d3480a3c16ee165a4273826040516104c291815260200190565b60405180910390a25050565b6104d6610794565b6104e060006107fb565b565b6060600480546103b490610b8b565b6104f9610794565b600680546001600160a01b0319166001600160a01b0383169081179091556040517f1253844b0fff3da7dd2829de816c9b4f94c238cf2bf6eb72c02c7d6f2b53beac90600090a250565b6006546001600160a01b031633146105935760405162461bcd60e51b815260206004820152600e60248201526d165bdd4818d85b89dd081b5a5b9d60921b60448201526064015b60405180910390fd5b6006546105a9906001600160a01b0316826107c1565b50565b600033610445818585610735565b6105e47f000000000000000000000000000000000000000000000000000000000000000082610bdb565b34146106235760405162461bcd60e51b815260206004820152600e60248201526d125b9d985b1a5908185b5bdd5b9d60921b604482015260640161058a565b61062d33826107c1565b6040805182815234602082015233917f8442948036198f1146d3a63c3db355d7e0295c2cc5676c755990445da4fdc1c9910160405180910390a250565b610672610794565b6001600160a01b03811661069c57604051631e4fbdf760e01b81526000600482015260240161058a565b6105a9816107fb565b6106b2838383600161084d565b505050565b6001600160a01b03838116600090815260016020908152604080832093861683529290522054600019811461072f578181101561072057604051637dc7a0d960e11b81526001600160a01b0384166004820152602481018290526044810183905260640161058a565b61072f8484848403600061084d565b50505050565b6001600160a01b03831661075f57604051634b637e8f60e11b81526000600482015260240161058a565b6001600160a01b0382166107895760405163ec442f0560e01b81526000600482015260240161058a565b6106b2838383610922565b6005546001600160a01b031633146104e05760405163118cdaa760e01b815233600482015260240161058a565b6001600160a01b0382166107eb5760405163ec442f0560e01b81526000600482015260240161058a565b6107f760008383610922565b5050565b600580546001600160a01b038381166001600160a01b0319831681179093556040519116919082907f8be0079c531659141344cd1fd0a4f28419497f9722a3daafe3b4186f6b6457e090600090a35050565b6001600160a01b0384166108775760405163e602df0560e01b81526000600482015260240161058a565b6001600160a01b0383166108a157604051634a1406b160e11b81526000600482015260240161058a565b6001600160a01b038085166000908152600160209081526040808320938716835292905220829055801561072f57826001600160a01b0316846001600160a01b03167f8c5be1e5ebec7d5bd14f71427d1e84f3dd0314c0f7b2291e5b200ac8c7c3b9258460405161091491815260200190565b60405180910390a350505050565b6001600160a01b03831661094d5780600260008282546109429190610bf2565b909155506109bf9050565b6001600160a01b038316600090815260208190526040902054818110156109a05760405163391434e360e21b81526001600160a01b0385166004820152602481018290526044810183905260640161058a565b6001600160a01b03841660009081526020819052604090209082900390555b6001600160a01b0382166109db576002805482900390556109fa565b6001600160a01b03821660009081526020819052604090208054820190555b816001600160a01b0316836001600160a01b03167fddf252ad1be2c89b69c2b068fc378daa952ba7f163c4a11628f55a4df523b3ef83604051610a3f91815260200190565b60405180910390a3505050565b602081526000825180602084015260005b81811015610a7a5760208186018101516040868401015201610a5d565b506000604082850101526040601f19601f83011684010191505092915050565b80356001600160a01b0381168114610ab157600080fd5b919050565b60008060408385031215610ac957600080fd5b610ad283610a9a565b946020939093013593505050565b600080600060608486031215610af557600080fd5b610afe84610a9a565b9250610b0c60208501610a9a565b929592945050506040919091013590565b600060208284031215610b2f57600080fd5b610b3882610a9a565b9392505050565b600060208284031215610b5157600080fd5b5035919050565b60008060408385031215610b6b57600080fd5b610b7483610a9a565b9150610b8260208401610a9a565b90509250929050565b600181811c90821680610b9f57607f821691505b602082108103610bbf57634e487b7160e01b600052602260045260246000fd5b50919050565b634e487b7160e01b600052601160045260246000fd5b808202811582820484141761044b5761044b610bc5565b8082018082111561044b5761044b610bc556fea2646970667358221220e12c92069286ffdba6a77800d7c65b9a6d07909169f068bcc11cb5f965fe82e364736f6c634300081a0033","linkReferences":{}},"methodIdentifiers":{"TOKEN_PRICE()":"d2d8cb67","allowance(address,address)":"dd62ed3e","approve(address,uint256)":"095ea7b3","balanceOf(address)":"70a08231","buy(uint256)":"d96a094a","decimals()":"313ce567","mint(address,uint256)":"40c10f19","mint(uint256)":"a0712d68","name()":"06fdde03","owner()":"8da5cb5b","renounceOwnership()":"715018a6","s_stakeContract()":"95deb0ba","setStakingContract(address)":"9dd373b9","symbol()":"95d89b41","totalSupply()":"18160ddd","transfer(address,uint256)":"a9059cbb","transferFrom(address,address,uint256)":"23b872dd","transferOwnership(address)":"f2fde38b"},"id":3}