{"abi":[{"type":"constructor","inputs":[{"name":"_USDT","type":"address","internalType":"address"}],"stateMutability":"nonpayable"},{"type":"function","name":"USDT","inputs":[],"outputs":[{"name":"","type":"address","internalType":"contract IERC20"}],"stateMutability":"view"},{"type":"function","name":"addCar","inputs":[{"name":"_name","type":"string","internalType":"string"},{"name":"_description","type":"string","internalType":"string"},{"name":"_price","type":"uint256","internalType":"uint256"},{"name":"_category","type":"uint256","internalType":"uint256"}],"outputs":[],"stateMutability":"nonpayable"},{"type":"function","name":"balanceOf","inputs":[{"name":"account","type":"address","internalType":"address"},{"name":"id","type":"uint256","internalType":"uint256"}],"outputs":[{"name":"","type":"uint256","internalType":"uint256"}],"stateMutability":"view"},{"type":"function","name":"balanceOfBatch","inputs":[{"name":"accounts","type":"address[]","internalType":"address[]"},{"name":"ids","type":"uint256[]","internalType":"uint256[]"}],"outputs":[{"name":"","type":"uint256[]","internalType":"uint256[]"}],"stateMutability":"view"},{"type":"function","name":"cars","inputs":[{"name":"","type":"uint256","internalType":"uint256"}],"outputs":[{"name":"name","type":"string","internalType":"string"},{"name":"description","type":"string","internalType":"string"},{"name":"price","type":"uint256","internalType":"uint256"},{"name":"category","type":"uint256","internalType":"uint256"}],"stateMutability":"view"},{"type":"function","name":"editCar","inputs":[{"name":"carId","type":"uint256","internalType":"uint256"},{"name":"_name","type":"string","internalType":"string"},{"name":"_description","type":"string","internalType":"string"},{"name":"_price","type":"uint256","internalType":"uint256"},{"name":"_category","type":"uint256","internalType":"uint256"}],"outputs":[],"stateMutability":"nonpayable"},{"type":"function","name":"getAllCars","inputs":[],"outputs":[{"name":"","type":"tuple[]","internalType":"struct ChainCars.Car[]","components":[{"name":"name","type":"string","internalType":"string"},{"name":"description","type":"string","internalType":"string"},{"name":"price","type":"uint256","internalType":"uint256"},{"name":"category","type":"uint256","internalType":"uint256"}]}],"stateMutability":"view"},{"type":"function","name":"getCarCategory","inputs":[{"name":"_tokenId","type":"uint256","internalType":"uint256"}],"outputs":[{"name":"","type":"uint256","internalType":"uint256"}],"stateMutability":"view"},{"type":"function","name":"isApprovedForAll","inputs":[{"name":"account","type":"address","internalType":"address"},{"name":"operator","type":"address","internalType":"address"}],"outputs":[{"name":"","type":"bool","internalType":"bool"}],"stateMutability":"view"},{"type":"function","name":"mintCar","inputs":[{"name":"carId","type":"uint256","internalType":"uint256"},{"name":"amount","type":"uint256","internalType":"uint256"}],"outputs":[],"stateMutability":"nonpayable"},{"type":"function","name":"name","inputs":[],"outputs":[{"name":"","type":"string","internalType":"string"}],"stateMutability":"view"},{"type":"function","name":"owner","inputs":[],"outputs":[{"name":"","type":"address","internalType":"address"}],"stateMutability":"view"},{"type":"function","name":"renounceOwnership","inputs":[],"outputs":[],"stateMutability":"nonpayable"},{"type":"function","name":"safeBatchTransferFrom","inputs":[{"name":"from","type":"address","internalType":"address"},{"name":"to","type":"address","internalType":"address"},{"name":"ids","type":"uint256[]","internalType":"uint256[]"},{"name":"values","type":"uint256[]","internalType":"uint256[]"},{"name":"data","type":"bytes","internalType":"bytes"}],"outputs":[],"stateMutability":"nonpayable"},{"type":"function","name":"safeTransferFrom","inputs":[{"name":"from","type":"address","internalType":"address"},{"name":"to","type":"address","internalType":"address"},{"name":"id","type":"uint256","internalType":"uint256"},{"name":"value","type":"uint256","internalType":"uint256"},{"name":"data","type":"bytes","internalType":"bytes"}],"outputs":[],"stateMutability":"nonpayable"},{"type":"function","name":"setApprovalForAll","inputs":[{"name":"operator","type":"address","internalType":"address"},{"name":"approved","type":"bool","internalType":"bool"}],"outputs":[],"stateMutability":"nonpayable"},{"type":"function","name":"supportsInterface","inputs":[{"name":"interfaceId","type":"bytes4","internalType":"bytes4"}],"outputs":[{"name":"","type":"bool","internalType":"bool"}],"stateMutability":"view"},{"type":"function","name":"symbol","inputs":[],"outputs":[{"name":"","type":"string","internalType":"string"}],"stateMutability":"view"},{"type":"function","name":"totalCars","inputs":[],"outputs":[{"name":"","type":"uint256","internalType":"uint256"}],"stateMutability":"view"},{"type":"function","name":"transferOwnership","inputs":[{"name":"newOwner","type":"address","internalType":"address"}],"outputs":[],"stateMutability":"nonpayable"},{"type":"function","name":"uri","inputs":[{"name":"","type":"uint256","internalType":"uint256"}],"outputs":[{"name":"","type":"string","internalType":"string"}],"stateMutability":"view"},{"type":"function","name":"withdrawUSDT","inputs":[{"name":"amount","type":"uint256","internalType":"uint256"}],"outputs":[],"stateMutability":"nonpayable"},{"type":"event","name":"ApprovalForAll","inputs":[{"name":"account","type":"address","indexed":true,"internalType":"address"},{"name":"operator","type":"address","indexed":true,"internalType":"address"},{"name":"approved","type":"bool","indexed":false,"internalType":"bool"}],"anonymous":false},{"type":"event","name":"CarAdded","inputs":[{"name":"carId","type":"uint256","indexed":true,"internalType":"uint256"},{"name":"name","type":"string","indexed":false,"internalType":"string"},{"name":"price","type":"uint256","indexed":false,"internalType":"uint256"},{"name":"category","type":"uint256","indexed":false,"internalType":"uint256"}],"anonymous":false},{"type":"event","name":"CarEdited","inputs":[{"name":"carId","type":"uint256","indexed":true,"internalType":"uint256"},{"name":"name","type":"string","indexed":false,"internalType":"string"},{"name":"price","type":"uint256","indexed":false,"internalType":"uint256"},{"name":"category","type":"uint256","indexed":false,"internalType":"uint256"}],"anonymous":false},{"type":"event","name":"CarMinted","inputs":[{"name":"buyer","type":"address","indexed":true,"internalType":"address"},{"name":"carId","type":"uint256","indexed":true,"internalType":"uint256"},{"name":"amount","type":"uint256","indexed":false,"internalType":"uint256"}],"anonymous":false},{"type":"event","name":"OwnershipTransferred","inputs":[{"name":"previousOwner","type":"address","indexed":true,"internalType":"address"},{"name":"newOwner","type":"address","indexed":true,"internalType":"address"}],"anonymous":false},{"type":"event","name":"TransferBatch","inputs":[{"name":"operator","type":"address","indexed":true,"internalType":"address"},{"name":"from","type":"address","indexed":true,"internalType":"address"},{"name":"to","type":"address","indexed":true,"internalType":"address"},{"name":"ids","type":"uint256[]","indexed":false,"internalType":"uint256[]"},{"name":"values","type":"uint256[]","indexed":false,"internalType":"uint256[]"}],"anonymous":false},{"type":"event","name":"TransferSingle","inputs":[{"name":"operator","type":"address","indexed":true,"internalType":"address"},{"name":"from","type":"address","indexed":true,"internalType":"address"},{"name":"to","type":"address","indexed":true,"internalType":"address"},{"name":"id","type":"uint256","indexed":false,"internalType":"uint256"},{"name":"value","type":"uint256","indexed":false,"internalType":"uint256"}],"anonymous":false},{"type":"event","name":"URI","inputs":[{"name":"value","type":"string","indexed":false,"internalType":"string"},{"name":"id","type":"uint256","indexed":true,"internalType":"uint256"}],"anonymous":false},{"type":"event","name":"USDTWithdrawn","inputs":[{"name":"owner","type":"address","indexed":true,"internalType":"address"},{"name":"amount","type":"uint256","indexed":false,"internalType":"uint256"}],"anonymous":false},{"type":"error","name":"ERC1155InsufficientBalance","inputs":[{"name":"sender","type":"address","internalType":"address"},{"name":"balance","type":"uint256","internalType":"uint256"},{"name":"needed","type":"uint256","internalType":"uint256"},{"name":"tokenId","type":"uint256","internalType":"uint256"}]},{"type":"error","name":"ERC1155InvalidApprover","inputs":[{"name":"approver","type":"address","internalType":"address"}]},{"type":"error","name":"ERC1155InvalidArrayLength","inputs":[{"name":"idsLength","type":"uint256","internalType":"uint256"},{"name":"valuesLength","type":"uint256","internalType":"uint256"}]},{"type":"error","name":"ERC1155InvalidOperator","inputs":[{"name":"operator","type":"address","internalType":"address"}]},{"type":"error","name":"ERC1155InvalidReceiver","inputs":[{"name":"receiver","type":"address","internalType":"address"}]},{"type":"error","name":"ERC1155InvalidSender","inputs":[{"name":"sender","type":"address","internalType":"address"}]},{"type":"error","name":"ERC1155MissingApprovalForAll","inputs":[{"name":"operator","type":"address","internalType":"address"},{"name":"owner","type":"address","internalType":"address"}]},{"type":"error","name":"OwnableInvalidOwner","inputs":[{"name":"owner","type":"address","internalType":"address"}]},{"type":"error","name":"OwnableUnauthorizedAccount","inputs":[{"name":"account","type":"address","internalType":"address"}]}],"bytecode":{"object":"0x60806040523480156200001157600080fd5b506040516200259538038062002595833981016040819052620000349162000174565b6040805160208101909152600081523390620000508162000110565b506001600160a01b0381166200008057604051631e4fbdf760e01b81526000600482015260240160405180910390fd5b6200008b8162000122565b50604080518082019091526009815268436861696e4361727360b81b6020820152600490620000bb90826200024d565b50604080518082019091526002815261434360f01b6020820152600590620000e490826200024d565b50600680546001600160a01b0319166001600160a01b0392909216919091179055600060085562000319565b60026200011e82826200024d565b5050565b600380546001600160a01b038381166001600160a01b0319831681179093556040519116919082907f8be0079c531659141344cd1fd0a4f28419497f9722a3daafe3b4186f6b6457e090600090a35050565b6000602082840312156200018757600080fd5b81516001600160a01b03811681146200019f57600080fd5b9392505050565b634e487b7160e01b600052604160045260246000fd5b600181811c90821680620001d157607f821691505b602082108103620001f257634e487b7160e01b600052602260045260246000fd5b50919050565b601f82111562000248576000816000526020600020601f850160051c81016020861015620002235750805b601f850160051c820191505b8181101562000244578281556001016200022f565b5050505b505050565b81516001600160401b03811115620002695762000269620001a6565b62000281816200027a8454620001bc565b84620001f8565b602080601f831160018114620002b95760008415620002a05750858301515b600019600386901b1c1916600185901b17855562000244565b600085815260208120601f198616915b82811015620002ea57888601518255948401946001909101908401620002c9565b5085821015620003095787850151600019600388901b60f8161c191681555b5050505050600190811b01905550565b61226c80620003296000396000f3fe608060405234801561001057600080fd5b50600436106101415760003560e01c80638da5cb5b116100b8578063c5b5cf561161007c578063c5b5cf561461029e578063e16706dd146102c1578063e985e9c5146102d4578063f242432a146102e7578063f2fde38b146102fa578063f7746e361461030d57600080fd5b80638da5cb5b1461023657806395d89b411461025b578063a22cb46514610263578063abfe5d5714610276578063c54e44eb1461028b57600080fd5b80632eb2c2d61161010a5780632eb2c2d6146101c057806334e4293e146101d55780633ea521ef146101e85780634865bed2146101fb5780634e1273f41461020e578063715018a61461022e57600080fd5b8062fdd58e1461014657806301ffc9a71461016c57806306fdde031461018f5780630e89341c146101a4578063214e563c146101b7575b600080fd5b61015961015436600461186e565b610330565b6040519081526020015b60405180910390f35b61017f61017a3660046118ae565b610358565b6040519015158152602001610163565b6101976103a8565b6040516101639190611918565b6101976101b236600461192b565b610436565b61015960085481565b6101d36101ce366004611a8e565b6104ca565b005b6101d36101e3366004611b38565b610536565b6101d36101f636600461192b565b610962565b6101d3610209366004611b5a565b610a8d565b61022161021c366004611bce565b610b5c565b6040516101639190611cca565b6101d3610c29565b6003546001600160a01b03165b6040516001600160a01b039091168152602001610163565b610197610c3d565b6101d3610271366004611ceb565b610c4a565b61027e610c59565b6040516101639190611d22565b600654610243906001600160a01b031681565b6101596102ac36600461192b565b60009081526007602052604090206003015490565b6101d36102cf366004611dbf565b610e74565b61017f6102e2366004611e3e565b610f74565b6101d36102f5366004611e71565b610fa2565b6101d3610308366004611ed6565b611001565b61032061031b36600461192b565b61103f565b6040516101639493929190611ef1565b6000818152602081815260408083206001600160a01b03861684529091529020545b92915050565b60006001600160e01b03198216636cdb3d1360e11b148061038957506001600160e01b031982166303a24d0760e21b145b8061035257506301ffc9a760e01b6001600160e01b0319831614610352565b600480546103b590611f2a565b80601f01602080910402602001604051908101604052809291908181526020018280546103e190611f2a565b801561042e5780601f106104035761010080835404028352916020019161042e565b820191906000526020600020905b81548152906001019060200180831161041157829003601f168201915b505050505081565b60606002805461044590611f2a565b80601f016020809104026020016040519081016040528092919081815260200182805461047190611f2a565b80156104be5780601f10610493576101008083540402835291602001916104be565b820191906000526020600020905b8154815290600101906020018083116104a157829003601f168201915b50505050509050919050565b336001600160a01b03861681148015906104eb57506104e98682610f74565b155b156105215760405163711bec9160e11b81526001600160a01b038083166004830152871660248201526044015b60405180910390fd5b61052e8686868686611177565b505050505050565b6008548211156105805760405162461bcd60e51b815260206004820152601560248201527410d85c88125108191bd95cc81b9bdd08195e1a5cdd605a1b6044820152606401610518565b6000828152600760205260408082208151608081019092528054829082906105a790611f2a565b80601f01602080910402602001604051908101604052809291908181526020018280546105d390611f2a565b80156106205780601f106105f557610100808354040283529160200191610620565b820191906000526020600020905b81548152906001019060200180831161060357829003601f168201915b5050505050815260200160018201805461063990611f2a565b80601f016020809104026020016040519081016040528092919081815260200182805461066590611f2a565b80156106b25780601f10610687576101008083540402835291602001916106b2565b820191906000526020600020905b81548152906001019060200180831161069557829003601f168201915b5050505050815260200160028201548152602001600382015481525050905060008282604001516106e39190611f74565b6006546040516370a0823160e01b815233600482015291925082916001600160a01b03909116906370a0823190602401602060405180830381865afa158015610730573d6000803e3d6000fd5b505050506040513d601f19601f820116820180604052508101906107549190611f8b565b10156107945760405162461bcd60e51b815260206004820152600f60248201526e139bdd08195b9bdd59da081554d115608a1b6044820152606401610518565b60065460405163095ea7b360e01b8152306004820152602481018390526001600160a01b039091169063095ea7b3906044016020604051808303816000875af11580156107e5573d6000803e3d6000fd5b505050506040513d601f19601f820116820180604052508101906108099190611fa4565b61084c5760405162461bcd60e51b81526020600482015260146024820152731554d11508185c1c1c9bdd985b0819985a5b195960621b6044820152606401610518565b6006546040516323b872dd60e01b8152336004820152306024820152604481018390526001600160a01b03909116906323b872dd906064016020604051808303816000875af11580156108a3573d6000803e3d6000fd5b505050506040513d601f19601f820116820180604052508101906108c79190611fa4565b61090a5760405162461bcd60e51b81526020600482015260146024820152731554d115081d1c985b9cd9995c8819985a5b195960621b6044820152606401610518565b610925338585604051806020016040528060008152506111de565b604051838152849033907f483feb26d12e8b97df2cd018de40522dfc1be93325ff893c38a4272a338a04829060200160405180910390a350505050565b61096a61123b565b6006546001600160a01b031663a9059cbb61098d6003546001600160a01b031690565b6040516001600160e01b031960e084901b1681526001600160a01b039091166004820152602481018490526044016020604051808303816000875af11580156109da573d6000803e3d6000fd5b505050506040513d601f19601f820116820180604052508101906109fe9190611fa4565b610a3c5760405162461bcd60e51b815260206004820152600f60248201526e15da5d1a191c985dc819985a5b1959608a1b6044820152606401610518565b6003546001600160a01b03166001600160a01b03167fb0bd88cdae83f74f918eb6bf26d99dcb3c1530530f339233b029e3b6a00ac50b82604051610a8291815260200190565b60405180910390a250565b610a9561123b565b60088054906000610aa583611fc1565b909155505060408051608081018252858152602080820186905281830185905260608201849052600854600090815260079091529190912081518190610aeb9082612027565b5060208201516001820190610b009082612027565b5060408201518160020155606082015181600301559050506008547fdb42c927c8cd4cc9d03fd8a7eca222bdbe3239934ef8322ed8dd58b9a40229a2858484604051610b4e939291906120e7565b60405180910390a250505050565b60608151835114610b8d5781518351604051635b05999160e01b815260048101929092526024820152604401610518565b6000835167ffffffffffffffff811115610ba957610ba9611944565b604051908082528060200260200182016040528015610bd2578160200160208202803683370190505b50905060005b8451811015610c2157602080820286010151610bfc90602080840287010151610330565b828281518110610c0e57610c0e61210c565b6020908102919091010152600101610bd8565b509392505050565b610c3161123b565b610c3b6000611268565b565b600580546103b590611f2a565b610c553383836112ba565b5050565b6060600060085467ffffffffffffffff811115610c7857610c78611944565b604051908082528060200260200182016040528015610cd457816020015b610cc16040518060800160405280606081526020016060815260200160008152602001600081525090565b815260200190600190039081610c965790505b50905060015b6008548111610e6e5760008181526007602052604090819020815160808101909252805482908290610d0b90611f2a565b80601f0160208091040260200160405190810160405280929190818152602001828054610d3790611f2a565b8015610d845780601f10610d5957610100808354040283529160200191610d84565b820191906000526020600020905b815481529060010190602001808311610d6757829003601f168201915b50505050508152602001600182018054610d9d90611f2a565b80601f0160208091040260200160405190810160405280929190818152602001828054610dc990611f2a565b8015610e165780601f10610deb57610100808354040283529160200191610e16565b820191906000526020600020905b815481529060010190602001808311610df957829003601f168201915b50505091835250506002820154602082015260039091015460409091015282610e40600184612122565b81518110610e5057610e5061210c565b60200260200101819052508080610e6690611fc1565b915050610cda565b50919050565b610e7c61123b565b600854851115610ec65760405162461bcd60e51b815260206004820152601560248201527410d85c88125108191bd95cc81b9bdd08195e1a5cdd605a1b6044820152606401610518565b60408051608081018252858152602080820186905281830185905260608201849052600088815260079091529190912081518190610f049082612027565b5060208201516001820190610f199082612027565b506040820151816002015560608201518160030155905050847f31fa1163d64f4faf98960c934ebd3f74a12693a1ca2bc0324b0a88f6136cd79f858484604051610f65939291906120e7565b60405180910390a25050505050565b6001600160a01b03918216600090815260016020908152604080832093909416825291909152205460ff1690565b336001600160a01b0386168114801590610fc35750610fc18682610f74565b155b15610ff45760405163711bec9160e11b81526001600160a01b03808316600483015287166024820152604401610518565b61052e8686868686611350565b61100961123b565b6001600160a01b03811661103357604051631e4fbdf760e01b815260006004820152602401610518565b61103c81611268565b50565b60076020526000908152604090208054819061105a90611f2a565b80601f016020809104026020016040519081016040528092919081815260200182805461108690611f2a565b80156110d35780601f106110a8576101008083540402835291602001916110d3565b820191906000526020600020905b8154815290600101906020018083116110b657829003601f168201915b5050505050908060010180546110e890611f2a565b80601f016020809104026020016040519081016040528092919081815260200182805461111490611f2a565b80156111615780601f1061113657610100808354040283529160200191611161565b820191906000526020600020905b81548152906001019060200180831161114457829003601f168201915b5050505050908060020154908060030154905084565b6001600160a01b0384166111a157604051632bfa23e760e11b815260006004820152602401610518565b6001600160a01b0385166111ca57604051626a0d4560e21b815260006004820152602401610518565b6111d785858585856113de565b5050505050565b6001600160a01b03841661120857604051632bfa23e760e11b815260006004820152602401610518565b6040805160018082526020820186905281830190815260608201859052608082019092529061052e6000878484876113de565b6003546001600160a01b03163314610c3b5760405163118cdaa760e01b8152336004820152602401610518565b600380546001600160a01b038381166001600160a01b0319831681179093556040519116919082907f8be0079c531659141344cd1fd0a4f28419497f9722a3daafe3b4186f6b6457e090600090a35050565b6001600160a01b0382166112e35760405162ced3e160e81b815260006004820152602401610518565b6001600160a01b03838116600081815260016020908152604080832094871680845294825291829020805460ff191686151590811790915591519182527f17307eab39ab6107e8899845ad3d59bd9653f200f220920489ca2b5937696c31910160405180910390a3505050565b6001600160a01b03841661137a57604051632bfa23e760e11b815260006004820152602401610518565b6001600160a01b0385166113a357604051626a0d4560e21b815260006004820152602401610518565b604080516001808252602082018690528183019081526060820185905260808201909252906113d587878484876113de565b50505050505050565b6113ea85858585611431565b6001600160a01b038416156111d75782513390600103611423576020848101519084015161141c838989858589611645565b505061052e565b61052e818787878787611769565b80518251146114605781518151604051635b05999160e01b815260048101929092526024820152604401610518565b3360005b8351811015611566576020818102858101820151908501909101516001600160a01b03881615611517576000828152602081815260408083206001600160a01b038c168452909152902054818110156114f0576040516303dee4c560e01b81526001600160a01b038a166004820152602481018290526044810183905260648101849052608401610518565b6000838152602081815260408083206001600160a01b038d16845290915290209082900390555b6001600160a01b0387161561155c576000828152602081815260408083206001600160a01b038b16845290915281208054839290611556908490612135565b90915550505b5050600101611464565b5082516001036115e75760208301516000906020840151909150856001600160a01b0316876001600160a01b0316846001600160a01b03167fc3d58168c5ae7397731d063d5bbf3d657854427343f4c083240f7aacaa2d0f6285856040516115d8929190918252602082015260400190565b60405180910390a450506111d7565b836001600160a01b0316856001600160a01b0316826001600160a01b03167f4a39dc06d4c0dbc64b70af90fd698a233a518aa5d07e595d983b8c0526c8f7fb8686604051611636929190612148565b60405180910390a45050505050565b6001600160a01b0384163b1561052e5760405163f23a6e6160e01b81526001600160a01b0385169063f23a6e61906116899089908990889088908890600401612176565b6020604051808303816000875af19250505080156116c4575060408051601f3d908101601f191682019092526116c1918101906121bb565b60015b61172d573d8080156116f2576040519150601f19603f3d011682016040523d82523d6000602084013e6116f7565b606091505b50805160000361172557604051632bfa23e760e11b81526001600160a01b0386166004820152602401610518565b805181602001fd5b6001600160e01b0319811663f23a6e6160e01b146113d557604051632bfa23e760e11b81526001600160a01b0386166004820152602401610518565b6001600160a01b0384163b1561052e5760405163bc197c8160e01b81526001600160a01b0385169063bc197c81906117ad90899089908890889088906004016121d8565b6020604051808303816000875af19250505080156117e8575060408051601f3d908101601f191682019092526117e5918101906121bb565b60015b611816573d8080156116f2576040519150601f19603f3d011682016040523d82523d6000602084013e6116f7565b6001600160e01b0319811663bc197c8160e01b146113d557604051632bfa23e760e11b81526001600160a01b0386166004820152602401610518565b80356001600160a01b038116811461186957600080fd5b919050565b6000806040838503121561188157600080fd5b61188a83611852565b946020939093013593505050565b6001600160e01b03198116811461103c57600080fd5b6000602082840312156118c057600080fd5b81356118cb81611898565b9392505050565b6000815180845260005b818110156118f8576020818501810151868301820152016118dc565b506000602082860101526020601f19601f83011685010191505092915050565b6020815260006118cb60208301846118d2565b60006020828403121561193d57600080fd5b5035919050565b634e487b7160e01b600052604160045260246000fd5b604051601f8201601f1916810167ffffffffffffffff8111828210171561198357611983611944565b604052919050565b600067ffffffffffffffff8211156119a5576119a5611944565b5060051b60200190565b600082601f8301126119c057600080fd5b813560206119d56119d08361198b565b61195a565b8083825260208201915060208460051b8701019350868411156119f757600080fd5b602086015b84811015611a1357803583529183019183016119fc565b509695505050505050565b600082601f830112611a2f57600080fd5b813567ffffffffffffffff811115611a4957611a49611944565b611a5c601f8201601f191660200161195a565b818152846020838601011115611a7157600080fd5b816020850160208301376000918101602001919091529392505050565b600080600080600060a08688031215611aa657600080fd5b611aaf86611852565b9450611abd60208701611852565b9350604086013567ffffffffffffffff80821115611ada57600080fd5b611ae689838a016119af565b94506060880135915080821115611afc57600080fd5b611b0889838a016119af565b93506080880135915080821115611b1e57600080fd5b50611b2b88828901611a1e565b9150509295509295909350565b60008060408385031215611b4b57600080fd5b50508035926020909101359150565b60008060008060808587031215611b7057600080fd5b843567ffffffffffffffff80821115611b8857600080fd5b611b9488838901611a1e565b95506020870135915080821115611baa57600080fd5b50611bb787828801611a1e565b949794965050505060408301359260600135919050565b60008060408385031215611be157600080fd5b823567ffffffffffffffff80821115611bf957600080fd5b818501915085601f830112611c0d57600080fd5b81356020611c1d6119d08361198b565b82815260059290921b84018101918181019089841115611c3c57600080fd5b948201945b83861015611c6157611c5286611852565b82529482019490820190611c41565b96505086013592505080821115611c7757600080fd5b50611c84858286016119af565b9150509250929050565b60008151808452602080850194506020840160005b83811015611cbf57815187529582019590820190600101611ca3565b509495945050505050565b6020815260006118cb6020830184611c8e565b801515811461103c57600080fd5b60008060408385031215611cfe57600080fd5b611d0783611852565b91506020830135611d1781611cdd565b809150509250929050565b600060208083018184528085518083526040925060408601915060408160051b87010184880160005b83811015611db157603f19898403018552815160808151818652611d71828701826118d2565b915050888201518582038a870152611d8982826118d2565b838a0151878b0152606093840151939096019290925250509386019390860190600101611d4b565b509098975050505050505050565b600080600080600060a08688031215611dd757600080fd5b85359450602086013567ffffffffffffffff80821115611df657600080fd5b611e0289838a01611a1e565b95506040880135915080821115611e1857600080fd5b50611e2588828901611a1e565b9598949750949560608101359550608001359392505050565b60008060408385031215611e5157600080fd5b611e5a83611852565b9150611e6860208401611852565b90509250929050565b600080600080600060a08688031215611e8957600080fd5b611e9286611852565b9450611ea060208701611852565b93506040860135925060608601359150608086013567ffffffffffffffff811115611eca57600080fd5b611b2b88828901611a1e565b600060208284031215611ee857600080fd5b6118cb82611852565b608081526000611f0460808301876118d2565b8281036020840152611f1681876118d2565b604084019590955250506060015292915050565b600181811c90821680611f3e57607f821691505b602082108103610e6e57634e487b7160e01b600052602260045260246000fd5b634e487b7160e01b600052601160045260246000fd5b808202811582820484141761035257610352611f5e565b600060208284031215611f9d57600080fd5b5051919050565b600060208284031215611fb657600080fd5b81516118cb81611cdd565b600060018201611fd357611fd3611f5e565b5060010190565b601f821115612022576000816000526020600020601f850160051c810160208610156120035750805b601f850160051c820191505b8181101561052e5782815560010161200f565b505050565b815167ffffffffffffffff81111561204157612041611944565b6120558161204f8454611f2a565b84611fda565b602080601f83116001811461208a57600084156120725750858301515b600019600386901b1c1916600185901b17855561052e565b600085815260208120601f198616915b828110156120b95788860151825594840194600190910190840161209a565b50858210156120d75787850151600019600388901b60f8161c191681555b5050505050600190811b01905550565b6060815260006120fa60608301866118d2565b60208301949094525060400152919050565b634e487b7160e01b600052603260045260246000fd5b8181038181111561035257610352611f5e565b8082018082111561035257610352611f5e565b60408152600061215b6040830185611c8e565b828103602084015261216d8185611c8e565b95945050505050565b6001600160a01b03868116825285166020820152604081018490526060810183905260a0608082018190526000906121b0908301846118d2565b979650505050505050565b6000602082840312156121cd57600080fd5b81516118cb81611898565b6001600160a01b0386811682528516602082015260a06040820181905260009061220490830186611c8e565b82810360608401526122168186611c8e565b9050828103608084015261222a81856118d2565b9897505050505050505056fea264697066735822122033c80d199dd746621f1405f34edf5403e1b9d01943ee90da2cbb1f970f47bc7964736f6c63430008170033","linkReferences":{}},"methodIdentifiers":{"USDT()":"c54e44eb","addCar(string,string,uint256,uint256)":"4865bed2","balanceOf(address,uint256)":"00fdd58e","balanceOfBatch(address[],uint256[])":"4e1273f4","cars(uint256)":"f7746e36","editCar(uint256,string,string,uint256,uint256)":"e16706dd","getAllCars()":"abfe5d57","getCarCategory(uint256)":"c5b5cf56","isApprovedForAll(address,address)":"e985e9c5","mintCar(uint256,uint256)":"34e4293e","name()":"06fdde03","owner()":"8da5cb5b","renounceOwnership()":"715018a6","safeBatchTransferFrom(address,address,uint256[],uint256[],bytes)":"2eb2c2d6","safeTransferFrom(address,address,uint256,uint256,bytes)":"f242432a","setApprovalForAll(address,bool)":"a22cb465","supportsInterface(bytes4)":"01ffc9a7","symbol()":"95d89b41","totalCars()":"214e563c","transferOwnership(address)":"f2fde38b","uri(uint256)":"0e89341c","withdrawUSDT(uint256)":"3ea521ef"},"id":0}