{"abi":[{"type":"constructor","inputs":[{"name":"_USDT","type":"address","internalType":"address"}],"stateMutability":"nonpayable"},{"type":"function","name":"MAXSUPPLY","inputs":[],"outputs":[{"name":"","type":"uint256","internalType":"uint256"}],"stateMutability":"view"},{"type":"function","name":"USDT","inputs":[],"outputs":[{"name":"","type":"address","internalType":"contract IERC20"}],"stateMutability":"view"},{"type":"function","name":"addCar","inputs":[{"name":"_name","type":"string","internalType":"string"},{"name":"_description","type":"string","internalType":"string"},{"name":"_price","type":"uint256","internalType":"uint256"},{"name":"_category","type":"uint256","internalType":"uint256"}],"outputs":[],"stateMutability":"nonpayable"},{"type":"function","name":"balanceOf","inputs":[{"name":"account","type":"address","internalType":"address"},{"name":"id","type":"uint256","internalType":"uint256"}],"outputs":[{"name":"","type":"uint256","internalType":"uint256"}],"stateMutability":"view"},{"type":"function","name":"balanceOfBatch","inputs":[{"name":"accounts","type":"address[]","internalType":"address[]"},{"name":"ids","type":"uint256[]","internalType":"uint256[]"}],"outputs":[{"name":"","type":"uint256[]","internalType":"uint256[]"}],"stateMutability":"view"},{"type":"function","name":"cars","inputs":[{"name":"","type":"uint256","internalType":"uint256"}],"outputs":[{"name":"name","type":"string","internalType":"string"},{"name":"description","type":"string","internalType":"string"},{"name":"price","type":"uint256","internalType":"uint256"},{"name":"category","type":"uint256","internalType":"uint256"}],"stateMutability":"view"},{"type":"function","name":"carsOwnedByWallet","inputs":[{"name":"","type":"address","internalType":"address"},{"name":"","type":"uint256","internalType":"uint256"}],"outputs":[{"name":"","type":"uint256","internalType":"uint256"}],"stateMutability":"view"},{"type":"function","name":"getAllCars","inputs":[],"outputs":[{"name":"","type":"tuple[]","internalType":"struct ChainCars.Car[]","components":[{"name":"name","type":"string","internalType":"string"},{"name":"description","type":"string","internalType":"string"},{"name":"price","type":"uint256","internalType":"uint256"},{"name":"category","type":"uint256","internalType":"uint256"}]}],"stateMutability":"view"},{"type":"function","name":"getCarCategory","inputs":[{"name":"_tokenId","type":"uint256","internalType":"uint256"}],"outputs":[{"name":"","type":"uint256","internalType":"uint256"}],"stateMutability":"view"},{"type":"function","name":"getCarsOwnedByWallet","inputs":[{"name":"wallet","type":"address","internalType":"address"}],"outputs":[{"name":"","type":"uint256[]","internalType":"uint256[]"}],"stateMutability":"view"},{"type":"function","name":"isApprovedForAll","inputs":[{"name":"account","type":"address","internalType":"address"},{"name":"operator","type":"address","internalType":"address"}],"outputs":[{"name":"","type":"bool","internalType":"bool"}],"stateMutability":"view"},{"type":"function","name":"mintCar","inputs":[{"name":"_carId","type":"uint256","internalType":"uint256"},{"name":"_amount","type":"uint256","internalType":"uint256"}],"outputs":[],"stateMutability":"nonpayable"},{"type":"function","name":"name","inputs":[],"outputs":[{"name":"","type":"string","internalType":"string"}],"stateMutability":"view"},{"type":"function","name":"owner","inputs":[],"outputs":[{"name":"","type":"address","internalType":"address"}],"stateMutability":"view"},{"type":"function","name":"renounceOwnership","inputs":[],"outputs":[],"stateMutability":"nonpayable"},{"type":"function","name":"safeBatchTransferFrom","inputs":[{"name":"from","type":"address","internalType":"address"},{"name":"to","type":"address","internalType":"address"},{"name":"ids","type":"uint256[]","internalType":"uint256[]"},{"name":"values","type":"uint256[]","internalType":"uint256[]"},{"name":"data","type":"bytes","internalType":"bytes"}],"outputs":[],"stateMutability":"nonpayable"},{"type":"function","name":"safeTransferFrom","inputs":[{"name":"from","type":"address","internalType":"address"},{"name":"to","type":"address","internalType":"address"},{"name":"id","type":"uint256","internalType":"uint256"},{"name":"value","type":"uint256","internalType":"uint256"},{"name":"data","type":"bytes","internalType":"bytes"}],"outputs":[],"stateMutability":"nonpayable"},{"type":"function","name":"setApprovalForAll","inputs":[{"name":"operator","type":"address","internalType":"address"},{"name":"approved","type":"bool","internalType":"bool"}],"outputs":[],"stateMutability":"nonpayable"},{"type":"function","name":"supportsInterface","inputs":[{"name":"interfaceId","type":"bytes4","internalType":"bytes4"}],"outputs":[{"name":"","type":"bool","internalType":"bool"}],"stateMutability":"view"},{"type":"function","name":"symbol","inputs":[],"outputs":[{"name":"","type":"string","internalType":"string"}],"stateMutability":"view"},{"type":"function","name":"totalCars","inputs":[],"outputs":[{"name":"","type":"uint256","internalType":"uint256"}],"stateMutability":"view"},{"type":"function","name":"totalMinted","inputs":[{"name":"","type":"uint256","internalType":"uint256"}],"outputs":[{"name":"","type":"uint256","internalType":"uint256"}],"stateMutability":"view"},{"type":"function","name":"transferOwnership","inputs":[{"name":"newOwner","type":"address","internalType":"address"}],"outputs":[],"stateMutability":"nonpayable"},{"type":"function","name":"uri","inputs":[{"name":"","type":"uint256","internalType":"uint256"}],"outputs":[{"name":"","type":"string","internalType":"string"}],"stateMutability":"view"},{"type":"function","name":"withdrawUSDT","inputs":[{"name":"amount","type":"uint256","internalType":"uint256"}],"outputs":[],"stateMutability":"nonpayable"},{"type":"event","name":"ApprovalForAll","inputs":[{"name":"account","type":"address","indexed":true,"internalType":"address"},{"name":"operator","type":"address","indexed":true,"internalType":"address"},{"name":"approved","type":"bool","indexed":false,"internalType":"bool"}],"anonymous":false},{"type":"event","name":"OwnershipTransferred","inputs":[{"name":"previousOwner","type":"address","indexed":true,"internalType":"address"},{"name":"newOwner","type":"address","indexed":true,"internalType":"address"}],"anonymous":false},{"type":"event","name":"TransferBatch","inputs":[{"name":"operator","type":"address","indexed":true,"internalType":"address"},{"name":"from","type":"address","indexed":true,"internalType":"address"},{"name":"to","type":"address","indexed":true,"internalType":"address"},{"name":"ids","type":"uint256[]","indexed":false,"internalType":"uint256[]"},{"name":"values","type":"uint256[]","indexed":false,"internalType":"uint256[]"}],"anonymous":false},{"type":"event","name":"TransferSingle","inputs":[{"name":"operator","type":"address","indexed":true,"internalType":"address"},{"name":"from","type":"address","indexed":true,"internalType":"address"},{"name":"to","type":"address","indexed":true,"internalType":"address"},{"name":"id","type":"uint256","indexed":false,"internalType":"uint256"},{"name":"value","type":"uint256","indexed":false,"internalType":"uint256"}],"anonymous":false},{"type":"event","name":"URI","inputs":[{"name":"value","type":"string","indexed":false,"internalType":"string"},{"name":"id","type":"uint256","indexed":true,"internalType":"uint256"}],"anonymous":false},{"type":"error","name":"ERC1155InsufficientBalance","inputs":[{"name":"sender","type":"address","internalType":"address"},{"name":"balance","type":"uint256","internalType":"uint256"},{"name":"needed","type":"uint256","internalType":"uint256"},{"name":"tokenId","type":"uint256","internalType":"uint256"}]},{"type":"error","name":"ERC1155InvalidApprover","inputs":[{"name":"approver","type":"address","internalType":"address"}]},{"type":"error","name":"ERC1155InvalidArrayLength","inputs":[{"name":"idsLength","type":"uint256","internalType":"uint256"},{"name":"valuesLength","type":"uint256","internalType":"uint256"}]},{"type":"error","name":"ERC1155InvalidOperator","inputs":[{"name":"operator","type":"address","internalType":"address"}]},{"type":"error","name":"ERC1155InvalidReceiver","inputs":[{"name":"receiver","type":"address","internalType":"address"}]},{"type":"error","name":"ERC1155InvalidSender","inputs":[{"name":"sender","type":"address","internalType":"address"}]},{"type":"error","name":"ERC1155MissingApprovalForAll","inputs":[{"name":"operator","type":"address","internalType":"address"},{"name":"owner","type":"address","internalType":"address"}]},{"type":"error","name":"OwnableInvalidOwner","inputs":[{"name":"owner","type":"address","internalType":"address"}]},{"type":"error","name":"OwnableUnauthorizedAccount","inputs":[{"name":"account","type":"address","internalType":"address"}]}],"bytecode":{"object":"0x60806040526064600b553480156200001657600080fd5b50604051620022c1380380620022c1833981016040819052620000399162000179565b6040805160208101909152600081523390620000558162000115565b506001600160a01b0381166200008557604051631e4fbdf760e01b81526000600482015260240160405180910390fd5b620000908162000127565b50604080518082019091526009815268436861696e4361727360b81b6020820152600490620000c0908262000252565b50604080518082019091526002815261434360f01b6020820152600590620000e9908262000252565b50600680546001600160a01b0319166001600160a01b03929092169190911790556000600a556200031e565b600262000123828262000252565b5050565b600380546001600160a01b038381166001600160a01b0319831681179093556040519116919082907f8be0079c531659141344cd1fd0a4f28419497f9722a3daafe3b4186f6b6457e090600090a35050565b6000602082840312156200018c57600080fd5b81516001600160a01b0381168114620001a457600080fd5b9392505050565b634e487b7160e01b600052604160045260246000fd5b600181811c90821680620001d657607f821691505b602082108103620001f757634e487b7160e01b600052602260045260246000fd5b50919050565b601f8211156200024d576000816000526020600020601f850160051c81016020861015620002285750805b601f850160051c820191505b81811015620002495782815560010162000234565b5050505b505050565b81516001600160401b038111156200026e576200026e620001ab565b62000286816200027f8454620001c1565b84620001fd565b602080601f831160018114620002be5760008415620002a55750858301515b600019600386901b1c1916600185901b17855562000249565b600085815260208120601f198616915b82811015620002ef57888601518255948401946001909101908401620002ce565b50858210156200030e5787850151600019600388901b60f8161c191681555b5050505050600190811b01905550565b611f93806200032e6000396000f3fe608060405234801561001057600080fd5b50600436106101725760003560e01c8063758b4e86116100de578063c54e44eb11610097578063f242432a11610071578063f242432a14610341578063f2fde38b14610354578063f7746e3614610367578063f7bd2c9e1461038a57600080fd5b8063c54e44eb146102f8578063c5b5cf561461030b578063e985e9c51461032e57600080fd5b8063758b4e861461027a5780638da5cb5b1461028357806395d89b41146102a85780639d7f4ebf146102b0578063a22cb465146102d0578063abfe5d57146102e357600080fd5b80632eb2c2d6116101305780632eb2c2d61461020457806334e4293e146102195780633ea521ef1461022c5780634865bed21461023f5780634e1273f414610252578063715018a61461027257600080fd5b8062fdd58e1461017757806301ffc9a71461019d57806306fdde03146101c05780630e89341c146101d55780631a0fa0cc146101e8578063214e563c146101fb575b600080fd5b61018a610185366004611652565b61039d565b6040519081526020015b60405180910390f35b6101b06101ab366004611692565b6103c5565b6040519015158152602001610194565b6101c8610415565b60405161019491906116fc565b6101c86101e336600461170f565b6104a3565b61018a6101f6366004611652565b610537565b61018a600a5481565b610217610212366004611872565b610568565b005b61021761022736600461191c565b6105d4565b61021761023a36600461170f565b610872565b61021761024d36600461193e565b61094f565b6102656102603660046119b2565b6109df565b6040516101949190611aae565b610217610aac565b61018a600b5481565b6003546001600160a01b03165b6040516001600160a01b039091168152602001610194565b6101c8610ac0565b61018a6102be36600461170f565b60096020526000908152604090205481565b6102176102de366004611acf565b610acd565b6102eb610adc565b6040516101949190611b06565b600654610290906001600160a01b031681565b61018a61031936600461170f565b60009081526007602052604090206003015490565b6101b061033c366004611ba3565b610cf7565b61021761034f366004611bd6565b610d25565b610217610362366004611c3b565b610d84565b61037a61037536600461170f565b610dbf565b6040516101949493929190611c56565b610265610398366004611c3b565b610ef7565b6000818152602081815260408083206001600160a01b03861684529091529020545b92915050565b60006001600160e01b03198216636cdb3d1360e11b14806103f657506001600160e01b031982166303a24d0760e21b145b806103bf57506301ffc9a760e01b6001600160e01b03198316146103bf565b6004805461042290611c8f565b80601f016020809104026020016040519081016040528092919081815260200182805461044e90611c8f565b801561049b5780601f106104705761010080835404028352916020019161049b565b820191906000526020600020905b81548152906001019060200180831161047e57829003601f168201915b505050505081565b6060600280546104b290611c8f565b80601f01602080910402602001604051908101604052809291908181526020018280546104de90611c8f565b801561052b5780601f106105005761010080835404028352916020019161052b565b820191906000526020600020905b81548152906001019060200180831161050e57829003601f168201915b50505050509050919050565b6008602052816000526040600020818154811061055357600080fd5b90600052602060002001600091509150505481565b336001600160a01b038616811480159061058957506105878682610cf7565b155b156105bf5760405163711bec9160e11b81526001600160a01b038083166004830152871660248201526044015b60405180910390fd5b6105cc8686868686610f62565b505050505050565b600a5482111561061e5760405162461bcd60e51b815260206004820152601560248201527410d85c88125108191bd95cc81b9bdd08195e1a5cdd605a1b60448201526064016105b6565b60405162461bcd60e51b815260206004820152601560248201527410d85c88125108191bd95cc81b9bdd08195e1a5cdd605a1b60448201526064016105b6565b81548152906001019060200180831161065e57505050918352505060018201805460209092019161068e90611c8f565b80601f01602080910402602001604051908101604052809291908181526020018280546106ba90611c8f565b80156107075780601f106106dc57610100808354040283529160200191610707565b820191906000526020600020905b8154815290600101906020018083116106ea57829003601f168201915b5050509183525050600282015460208083019190915260039092015460409182015260008681526009909252812080549293509061074483611cec565b9190505550600082826040015161075b9190611d05565b6006546040516323b872dd60e01b8152336004820152306024820152604481018390529192506001600160a01b0316906323b872dd906064016020604051808303816000875af11580156107b3573d6000803e3d6000fd5b505050506040513d601f19601f820116820180604052508101906107d79190611d1c565b61081a5760405162461bcd60e51b81526020600482015260146024820152731554d115081d1c985b9cd9995c8819985a5b195960621b60448201526064016105b6565b61083533858560405180602001604052806000815250610fc2565b60005b8381101561086b573360009081526008602090815260408220805460018181018355918452919092200186905501610838565b5050505050565b61087a61101f565b6006546001600160a01b031663a9059cbb61089d6003546001600160a01b031690565b6040516001600160e01b031960e084901b1681526001600160a01b039091166004820152602481018490526044016020604051808303816000875af11580156108ea573d6000803e3d6000fd5b505050506040513d601f19601f8201168201806040525081019061090e9190611d1c565b61094c5760405162461bcd60e51b815260206004820152600f60248201526e15da5d1a191c985dc819985a5b1959608a1b60448201526064016105b6565b50565b61095761101f565b600a805490600061096783611cec565b909155505060408051608081018252858152602080820186905281830185905260608201849052600a546000908152600790915291909120815181906109ad9082611d86565b50602082015160018201906109c29082611d86565b506040820151600282015560609091015160039091015550505050565b60608151835114610a105781518351604051635b05999160e01b8152600481019290925260248201526044016105b6565b6000835167ffffffffffffffff811115610a2c57610a2c611728565b604051908082528060200260200182016040528015610a55578160200160208202803683370190505b50905060005b8451811015610aa457602080820286010151610a7f9060208084028701015161039d565b828281518110610a9157610a91611e46565b6020908102919091010152600101610a5b565b509392505050565b610ab461101f565b610abe600061104c565b565b6005805461042290611c8f565b610ad833838361109e565b5050565b60606000600a5467ffffffffffffffff811115610afb57610afb611728565b604051908082528060200260200182016040528015610b5757816020015b610b446040518060800160405280606081526020016060815260200160008152602001600081525090565b815260200190600190039081610b195790505b50905060015b600a548111610cf15760008181526007602052604090819020815160808101909252805482908290610b8e90611c8f565b80601f0160208091040260200160405190810160405280929190818152602001828054610bba90611c8f565b8015610c075780601f10610bdc57610100808354040283529160200191610c07565b820191906000526020600020905b815481529060010190602001808311610bea57829003601f168201915b50505050508152602001600182018054610c2090611c8f565b80601f0160208091040260200160405190810160405280929190818152602001828054610c4c90611c8f565b8015610c995780601f10610c6e57610100808354040283529160200191610c99565b820191906000526020600020905b815481529060010190602001808311610c7c57829003601f168201915b50505091835250506002820154602082015260039091015460409091015282610cc3600184611e5c565b81518110610cd357610cd3611e46565b60200260200101819052508080610ce990611cec565b915050610b5d565b50919050565b6001600160a01b03918216600090815260016020908152604080832093909416825291909152205460ff1690565b336001600160a01b0386168114801590610d465750610d448682610cf7565b155b15610d775760405163711bec9160e11b81526001600160a01b038083166004830152871660248201526044016105b6565b6105cc8686868686611134565b610d8c61101f565b6001600160a01b038116610db657604051631e4fbdf760e01b8152600060048201526024016105b6565b61094c8161104c565b600760205260009081526040902080548190610dda90611c8f565b80601f0160208091040260200160405190810160405280929190818152602001828054610e0690611c8f565b8015610e535780601f10610e2857610100808354040283529160200191610e53565b820191906000526020600020905b815481529060010190602001808311610e3657829003601f168201915b505050505090806001018054610e6890611c8f565b80601f0160208091040260200160405190810160405280929190818152602001828054610e9490611c8f565b8015610ee15780601f10610eb657610100808354040283529160200191610ee1565b820191906000526020600020905b815481529060010190602001808311610ec457829003601f168201915b5050505050908060020154908060030154905084565b6001600160a01b03811660009081526008602090815260409182902080548351818402810184019094528084526060939283018282801561052b57602002820191906000526020600020905b815481526020019060010190808311610f435750505050509050919050565b6001600160a01b038416610f8c57604051632bfa23e760e11b8152600060048201526024016105b6565b6001600160a01b038516610fb557604051626a0d4560e21b8152600060048201526024016105b6565b61086b85858585856111c2565b6001600160a01b038416610fec57604051632bfa23e760e11b8152600060048201526024016105b6565b604080516001808252602082018690528183019081526060820185905260808201909252906105cc6000878484876111c2565b6003546001600160a01b03163314610abe5760405163118cdaa760e01b81523360048201526024016105b6565b600380546001600160a01b038381166001600160a01b0319831681179093556040519116919082907f8be0079c531659141344cd1fd0a4f28419497f9722a3daafe3b4186f6b6457e090600090a35050565b6001600160a01b0382166110c75760405162ced3e160e81b8152600060048201526024016105b6565b6001600160a01b03838116600081815260016020908152604080832094871680845294825291829020805460ff191686151590811790915591519182527f17307eab39ab6107e8899845ad3d59bd9653f200f220920489ca2b5937696c31910160405180910390a3505050565b6001600160a01b03841661115e57604051632bfa23e760e11b8152600060048201526024016105b6565b6001600160a01b03851661118757604051626a0d4560e21b8152600060048201526024016105b6565b604080516001808252602082018690528183019081526060820185905260808201909252906111b987878484876111c2565b50505050505050565b6111ce85858585611215565b6001600160a01b0384161561086b57825133906001036112075760208481015190840151611200838989858589611429565b50506105cc565b6105cc81878787878761154d565b80518251146112445781518151604051635b05999160e01b8152600481019290925260248201526044016105b6565b3360005b835181101561134a576020818102858101820151908501909101516001600160a01b038816156112fb576000828152602081815260408083206001600160a01b038c168452909152902054818110156112d4576040516303dee4c560e01b81526001600160a01b038a1660048201526024810182905260448101839052606481018490526084016105b6565b6000838152602081815260408083206001600160a01b038d16845290915290209082900390555b6001600160a01b03871615611340576000828152602081815260408083206001600160a01b038b1684529091528120805483929061133a908490611cd9565b90915550505b5050600101611248565b5082516001036113cb5760208301516000906020840151909150856001600160a01b0316876001600160a01b0316846001600160a01b03167fc3d58168c5ae7397731d063d5bbf3d657854427343f4c083240f7aacaa2d0f6285856040516113bc929190918252602082015260400190565b60405180910390a4505061086b565b836001600160a01b0316856001600160a01b0316826001600160a01b03167f4a39dc06d4c0dbc64b70af90fd698a233a518aa5d07e595d983b8c0526c8f7fb868660405161141a929190611e6f565b60405180910390a45050505050565b6001600160a01b0384163b156105cc5760405163f23a6e6160e01b81526001600160a01b0385169063f23a6e619061146d9089908990889088908890600401611e9d565b6020604051808303816000875af19250505080156114a8575060408051601f3d908101601f191682019092526114a591810190611ee2565b60015b611511573d8080156114d6576040519150601f19603f3d011682016040523d82523d6000602084013e6114db565b606091505b50805160000361150957604051632bfa23e760e11b81526001600160a01b03861660048201526024016105b6565b805181602001fd5b6001600160e01b0319811663f23a6e6160e01b146111b957604051632bfa23e760e11b81526001600160a01b03861660048201526024016105b6565b6001600160a01b0384163b156105cc5760405163bc197c8160e01b81526001600160a01b0385169063bc197c81906115919089908990889088908890600401611eff565b6020604051808303816000875af19250505080156115cc575060408051601f3d908101601f191682019092526115c991810190611ee2565b60015b6115fa573d8080156114d6576040519150601f19603f3d011682016040523d82523d6000602084013e6114db565b6001600160e01b0319811663bc197c8160e01b146111b957604051632bfa23e760e11b81526001600160a01b03861660048201526024016105b6565b80356001600160a01b038116811461164d57600080fd5b919050565b6000806040838503121561166557600080fd5b61166e83611636565b946020939093013593505050565b6001600160e01b03198116811461094c57600080fd5b6000602082840312156116a457600080fd5b81356116af8161167c565b9392505050565b6000815180845260005b818110156116dc576020818501810151868301820152016116c0565b506000602082860101526020601f19601f83011685010191505092915050565b6020815260006116af60208301846116b6565b60006020828403121561172157600080fd5b5035919050565b634e487b7160e01b600052604160045260246000fd5b604051601f8201601f1916810167ffffffffffffffff8111828210171561176757611767611728565b604052919050565b600067ffffffffffffffff82111561178957611789611728565b5060051b60200190565b600082601f8301126117a457600080fd5b813560206117b96117b48361176f565b61173e565b8083825260208201915060208460051b8701019350868411156117db57600080fd5b602086015b848110156117f757803583529183019183016117e0565b509695505050505050565b600082601f83011261181357600080fd5b813567ffffffffffffffff81111561182d5761182d611728565b611840601f8201601f191660200161173e565b81815284602083860101111561185557600080fd5b816020850160208301376000918101602001919091529392505050565b600080600080600060a0868803121561188a57600080fd5b61189386611636565b94506118a160208701611636565b9350604086013567ffffffffffffffff808211156118be57600080fd5b6118ca89838a01611793565b945060608801359150808211156118e057600080fd5b6118ec89838a01611793565b9350608088013591508082111561190257600080fd5b5061190f88828901611802565b9150509295509295909350565b6000806040838503121561192f57600080fd5b50508035926020909101359150565b6000806000806080858703121561195457600080fd5b843567ffffffffffffffff8082111561196c57600080fd5b61197888838901611802565b9550602087013591508082111561198e57600080fd5b5061199b87828801611802565b949794965050505060408301359260600135919050565b600080604083850312156119c557600080fd5b823567ffffffffffffffff808211156119dd57600080fd5b818501915085601f8301126119f157600080fd5b81356020611a016117b48361176f565b82815260059290921b84018101918181019089841115611a2057600080fd5b948201945b83861015611a4557611a3686611636565b82529482019490820190611a25565b96505086013592505080821115611a5b57600080fd5b50611a6885828601611793565b9150509250929050565b60008151808452602080850194506020840160005b83811015611aa357815187529582019590820190600101611a87565b509495945050505050565b6020815260006116af6020830184611a72565b801515811461094c57600080fd5b60008060408385031215611ae257600080fd5b611aeb83611636565b91506020830135611afb81611ac1565b809150509250929050565b600060208083018184528085518083526040925060408601915060408160051b87010184880160005b83811015611b9557603f19898403018552815160808151818652611b55828701826116b6565b915050888201518582038a870152611b6d82826116b6565b838a0151878b0152606093840151939096019290925250509386019390860190600101611b2f565b509098975050505050505050565b60008060408385031215611bb657600080fd5b611bbf83611636565b9150611bcd60208401611636565b90509250929050565b600080600080600060a08688031215611bee57600080fd5b611bf786611636565b9450611c0560208701611636565b93506040860135925060608601359150608086013567ffffffffffffffff811115611c2f57600080fd5b61190f88828901611802565b600060208284031215611c4d57600080fd5b6116af82611636565b608081526000611c6960808301876116b6565b8281036020840152611c7b81876116b6565b604084019590955250506060015292915050565b600181811c90821680611ca357607f821691505b602082108103610cf157634e487b7160e01b600052602260045260246000fd5b634e487b7160e01b600052601160045260246000fd5b808201808211156103bf576103bf611cc3565b600060018201611cfe57611cfe611cc3565b5060010190565b80820281158282048414176103bf576103bf611cc3565b600060208284031215611d2e57600080fd5b81516116af81611ac1565b601f821115611d81576000816000526020600020601f850160051c81016020861015611d625750805b601f850160051c820191505b818110156105cc57828155600101611d6e565b505050565b815167ffffffffffffffff811115611da057611da0611728565b611db481611dae8454611c8f565b84611d39565b602080601f831160018114611de95760008415611dd15750858301515b600019600386901b1c1916600185901b1785556105cc565b600085815260208120601f198616915b82811015611e1857888601518255948401946001909101908401611df9565b5085821015611e365787850151600019600388901b60f8161c191681555b5050505050600190811b01905550565b634e487b7160e01b600052603260045260246000fd5b818103818111156103bf576103bf611cc3565b604081526000611e826040830185611a72565b8281036020840152611e948185611a72565b95945050505050565b6001600160a01b03868116825285166020820152604081018490526060810183905260a060808201819052600090611ed7908301846116b6565b979650505050505050565b600060208284031215611ef457600080fd5b81516116af8161167c565b6001600160a01b0386811682528516602082015260a060408201819052600090611f2b90830186611a72565b8281036060840152611f3d8186611a72565b90508281036080840152611f5181856116b6565b9897505050505050505056fea2646970667358221220b2cacf26d06673e118fae238882056d35b9582835e145460b5ab7844856af93e64736f6c63430008170033","linkReferences":{}},"methodIdentifiers":{"MAXSUPPLY()":"758b4e86","USDT()":"c54e44eb","addCar(string,string,uint256,uint256)":"4865bed2","balanceOf(address,uint256)":"00fdd58e","balanceOfBatch(address[],uint256[])":"4e1273f4","cars(uint256)":"f7746e36","carsOwnedByWallet(address,uint256)":"1a0fa0cc","getAllCars()":"abfe5d57","getCarCategory(uint256)":"c5b5cf56","getCarsOwnedByWallet(address)":"f7bd2c9e","isApprovedForAll(address,address)":"e985e9c5","mintCar(uint256,uint256)":"34e4293e","name()":"06fdde03","owner()":"8da5cb5b","renounceOwnership()":"715018a6","safeBatchTransferFrom(address,address,uint256[],uint256[],bytes)":"2eb2c2d6","safeTransferFrom(address,address,uint256,uint256,bytes)":"f242432a","setApprovalForAll(address,bool)":"a22cb465","supportsInterface(bytes4)":"01ffc9a7","symbol()":"95d89b41","totalCars()":"214e563c","totalMinted(uint256)":"9d7f4ebf","transferOwnership(address)":"f2fde38b","uri(uint256)":"0e89341c","withdrawUSDT(uint256)":"3ea521ef"},"id":0}