{"abi":[{"type":"constructor","inputs":[{"name":"_USDT","type":"address","internalType":"address"}],"stateMutability":"nonpayable"},{"type":"function","name":"USDT","inputs":[],"outputs":[{"name":"","type":"address","internalType":"contract IERC20"}],"stateMutability":"view"},{"type":"function","name":"addCar","inputs":[{"name":"_name","type":"string","internalType":"string"},{"name":"_description","type":"string","internalType":"string"},{"name":"_price","type":"uint256","internalType":"uint256"},{"name":"_apy","type":"uint256","internalType":"uint256"}],"outputs":[],"stateMutability":"nonpayable"},{"type":"function","name":"balanceOf","inputs":[{"name":"account","type":"address","internalType":"address"},{"name":"id","type":"uint256","internalType":"uint256"}],"outputs":[{"name":"","type":"uint256","internalType":"uint256"}],"stateMutability":"view"},{"type":"function","name":"balanceOfBatch","inputs":[{"name":"accounts","type":"address[]","internalType":"address[]"},{"name":"ids","type":"uint256[]","internalType":"uint256[]"}],"outputs":[{"name":"","type":"uint256[]","internalType":"uint256[]"}],"stateMutability":"view"},{"type":"function","name":"buyCar","inputs":[{"name":"_carId","type":"uint256","internalType":"uint256"},{"name":"amount","type":"uint256","internalType":"uint256"}],"outputs":[],"stateMutability":"nonpayable"},{"type":"function","name":"cars","inputs":[{"name":"id","type":"uint256","internalType":"uint256"}],"outputs":[{"name":"name","type":"string","internalType":"string"},{"name":"description","type":"string","internalType":"string"},{"name":"price","type":"uint256","internalType":"uint256"},{"name":"apy","type":"uint256","internalType":"uint256"}],"stateMutability":"view"},{"type":"function","name":"editCar","inputs":[{"name":"_carId","type":"uint256","internalType":"uint256"},{"name":"_name","type":"string","internalType":"string"},{"name":"_description","type":"string","internalType":"string"},{"name":"_price","type":"uint256","internalType":"uint256"},{"name":"_apy","type":"uint256","internalType":"uint256"}],"outputs":[],"stateMutability":"nonpayable"},{"type":"function","name":"exists","inputs":[{"name":"id","type":"uint256","internalType":"uint256"}],"outputs":[{"name":"","type":"bool","internalType":"bool"}],"stateMutability":"view"},{"type":"function","name":"getAllCars","inputs":[],"outputs":[{"name":"","type":"tuple[]","internalType":"struct ChainCars.Car[]","components":[{"name":"name","type":"string","internalType":"string"},{"name":"description","type":"string","internalType":"string"},{"name":"price","type":"uint256","internalType":"uint256"},{"name":"apy","type":"uint256","internalType":"uint256"}]}],"stateMutability":"view"},{"type":"function","name":"getCar","inputs":[{"name":"_carId","type":"uint256","internalType":"uint256"}],"outputs":[{"name":"","type":"tuple","internalType":"struct ChainCars.Car","components":[{"name":"name","type":"string","internalType":"string"},{"name":"description","type":"string","internalType":"string"},{"name":"price","type":"uint256","internalType":"uint256"},{"name":"apy","type":"uint256","internalType":"uint256"}]}],"stateMutability":"view"},{"type":"function","name":"isApprovedForAll","inputs":[{"name":"account","type":"address","internalType":"address"},{"name":"operator","type":"address","internalType":"address"}],"outputs":[{"name":"","type":"bool","internalType":"bool"}],"stateMutability":"view"},{"type":"function","name":"name","inputs":[],"outputs":[{"name":"","type":"string","internalType":"string"}],"stateMutability":"view"},{"type":"function","name":"owner","inputs":[],"outputs":[{"name":"","type":"address","internalType":"address"}],"stateMutability":"view"},{"type":"function","name":"renounceOwnership","inputs":[],"outputs":[],"stateMutability":"nonpayable"},{"type":"function","name":"safeBatchTransferFrom","inputs":[{"name":"from","type":"address","internalType":"address"},{"name":"to","type":"address","internalType":"address"},{"name":"ids","type":"uint256[]","internalType":"uint256[]"},{"name":"values","type":"uint256[]","internalType":"uint256[]"},{"name":"data","type":"bytes","internalType":"bytes"}],"outputs":[],"stateMutability":"nonpayable"},{"type":"function","name":"safeTransferFrom","inputs":[{"name":"from","type":"address","internalType":"address"},{"name":"to","type":"address","internalType":"address"},{"name":"id","type":"uint256","internalType":"uint256"},{"name":"value","type":"uint256","internalType":"uint256"},{"name":"data","type":"bytes","internalType":"bytes"}],"outputs":[],"stateMutability":"nonpayable"},{"type":"function","name":"setApprovalForAll","inputs":[{"name":"operator","type":"address","internalType":"address"},{"name":"approved","type":"bool","internalType":"bool"}],"outputs":[],"stateMutability":"nonpayable"},{"type":"function","name":"supportsInterface","inputs":[{"name":"interfaceId","type":"bytes4","internalType":"bytes4"}],"outputs":[{"name":"","type":"bool","internalType":"bool"}],"stateMutability":"view"},{"type":"function","name":"symbol","inputs":[],"outputs":[{"name":"","type":"string","internalType":"string"}],"stateMutability":"view"},{"type":"function","name":"totalCars","inputs":[],"outputs":[{"name":"","type":"uint256","internalType":"uint256"}],"stateMutability":"view"},{"type":"function","name":"totalSupply","inputs":[],"outputs":[{"name":"","type":"uint256","internalType":"uint256"}],"stateMutability":"view"},{"type":"function","name":"totalSupply","inputs":[{"name":"id","type":"uint256","internalType":"uint256"}],"outputs":[{"name":"","type":"uint256","internalType":"uint256"}],"stateMutability":"view"},{"type":"function","name":"transferOwnership","inputs":[{"name":"newOwner","type":"address","internalType":"address"}],"outputs":[],"stateMutability":"nonpayable"},{"type":"function","name":"uri","inputs":[{"name":"","type":"uint256","internalType":"uint256"}],"outputs":[{"name":"","type":"string","internalType":"string"}],"stateMutability":"view"},{"type":"function","name":"withdrawUSDT","inputs":[{"name":"amount","type":"uint256","internalType":"uint256"}],"outputs":[],"stateMutability":"nonpayable"},{"type":"event","name":"ApprovalForAll","inputs":[{"name":"account","type":"address","indexed":true,"internalType":"address"},{"name":"operator","type":"address","indexed":true,"internalType":"address"},{"name":"approved","type":"bool","indexed":false,"internalType":"bool"}],"anonymous":false},{"type":"event","name":"CarAdded","inputs":[{"name":"carId","type":"uint256","indexed":true,"internalType":"uint256"},{"name":"name","type":"string","indexed":false,"internalType":"string"},{"name":"description","type":"string","indexed":false,"internalType":"string"},{"name":"price","type":"uint256","indexed":false,"internalType":"uint256"},{"name":"apy","type":"uint256","indexed":false,"internalType":"uint256"}],"anonymous":false},{"type":"event","name":"CarBought","inputs":[{"name":"buyer","type":"address","indexed":true,"internalType":"address"},{"name":"carId","type":"uint256","indexed":true,"internalType":"uint256"},{"name":"amount","type":"uint256","indexed":false,"internalType":"uint256"},{"name":"totalPrice","type":"uint256","indexed":false,"internalType":"uint256"}],"anonymous":false},{"type":"event","name":"CarEdited","inputs":[{"name":"carId","type":"uint256","indexed":true,"internalType":"uint256"},{"name":"name","type":"string","indexed":false,"internalType":"string"},{"name":"description","type":"string","indexed":false,"internalType":"string"},{"name":"price","type":"uint256","indexed":false,"internalType":"uint256"},{"name":"apy","type":"uint256","indexed":false,"internalType":"uint256"}],"anonymous":false},{"type":"event","name":"OwnershipTransferred","inputs":[{"name":"previousOwner","type":"address","indexed":true,"internalType":"address"},{"name":"newOwner","type":"address","indexed":true,"internalType":"address"}],"anonymous":false},{"type":"event","name":"TransferBatch","inputs":[{"name":"operator","type":"address","indexed":true,"internalType":"address"},{"name":"from","type":"address","indexed":true,"internalType":"address"},{"name":"to","type":"address","indexed":true,"internalType":"address"},{"name":"ids","type":"uint256[]","indexed":false,"internalType":"uint256[]"},{"name":"values","type":"uint256[]","indexed":false,"internalType":"uint256[]"}],"anonymous":false},{"type":"event","name":"TransferSingle","inputs":[{"name":"operator","type":"address","indexed":true,"internalType":"address"},{"name":"from","type":"address","indexed":true,"internalType":"address"},{"name":"to","type":"address","indexed":true,"internalType":"address"},{"name":"id","type":"uint256","indexed":false,"internalType":"uint256"},{"name":"value","type":"uint256","indexed":false,"internalType":"uint256"}],"anonymous":false},{"type":"event","name":"URI","inputs":[{"name":"value","type":"string","indexed":false,"internalType":"string"},{"name":"id","type":"uint256","indexed":true,"internalType":"uint256"}],"anonymous":false},{"type":"event","name":"USDTWithdrawn","inputs":[{"name":"owner","type":"address","indexed":true,"internalType":"address"},{"name":"amount","type":"uint256","indexed":false,"internalType":"uint256"}],"anonymous":false},{"type":"error","name":"ERC1155InsufficientBalance","inputs":[{"name":"sender","type":"address","internalType":"address"},{"name":"balance","type":"uint256","internalType":"uint256"},{"name":"needed","type":"uint256","internalType":"uint256"},{"name":"tokenId","type":"uint256","internalType":"uint256"}]},{"type":"error","name":"ERC1155InvalidApprover","inputs":[{"name":"approver","type":"address","internalType":"address"}]},{"type":"error","name":"ERC1155InvalidArrayLength","inputs":[{"name":"idsLength","type":"uint256","internalType":"uint256"},{"name":"valuesLength","type":"uint256","internalType":"uint256"}]},{"type":"error","name":"ERC1155InvalidOperator","inputs":[{"name":"operator","type":"address","internalType":"address"}]},{"type":"error","name":"ERC1155InvalidReceiver","inputs":[{"name":"receiver","type":"address","internalType":"address"}]},{"type":"error","name":"ERC1155InvalidSender","inputs":[{"name":"sender","type":"address","internalType":"address"}]},{"type":"error","name":"ERC1155MissingApprovalForAll","inputs":[{"name":"operator","type":"address","internalType":"address"},{"name":"owner","type":"address","internalType":"address"}]},{"type":"error","name":"OwnableInvalidOwner","inputs":[{"name":"owner","type":"address","internalType":"address"}]},{"type":"error","name":"OwnableUnauthorizedAccount","inputs":[{"name":"account","type":"address","internalType":"address"}]}],"bytecode":{"object":"0x608060405234801561001057600080fd5b506040516127c93803806127c983398101604081905261002f9161016c565b336040518060800160405280604d815260200161277c604d91396100528161010a565b506001600160a01b03811661008157604051631e4fbdf760e01b81526000600482015260240160405180910390fd5b61008a8161011a565b50604080518082019091526009815268436861696e4361727360b81b60208201526006906100b8908261023b565b50604080518082019091526002815261434360f01b60208201526007906100df908261023b565b50600880546001600160a01b0319166001600160a01b03929092169190911790556000600a556102f9565b6002610116828261023b565b5050565b600380546001600160a01b038381166001600160a01b0319831681179093556040519116919082907f8be0079c531659141344cd1fd0a4f28419497f9722a3daafe3b4186f6b6457e090600090a35050565b60006020828403121561017e57600080fd5b81516001600160a01b038116811461019557600080fd5b9392505050565b634e487b7160e01b600052604160045260246000fd5b600181811c908216806101c657607f821691505b6020821081036101e657634e487b7160e01b600052602260045260246000fd5b50919050565b601f82111561023657806000526020600020601f840160051c810160208510156102135750805b601f840160051c820191505b81811015610233576000815560010161021f565b50505b505050565b81516001600160401b038111156102545761025461019c565b6102688161026284546101b2565b846101ec565b6020601f82116001811461029c57600083156102845750848201515b600019600385901b1c1916600184901b178455610233565b600084815260208120601f198516915b828110156102cc57878501518255602094850194600190920191016102ac565b50848210156102ea5786840151600019600387901b60f8161c191681555b50505050600190811b01905550565b612474806103086000396000f3fe608060405234801561001057600080fd5b50600436106101725760003560e01c80635e8be190116100de578063bd85b03911610097578063e985e9c511610071578063e985e9c51461034c578063f242432a1461035f578063f2fde38b14610372578063f7746e361461038557600080fd5b8063bd85b03914610306578063c54e44eb14610326578063e16706dd1461033957600080fd5b80635e8be19014610289578063715018a6146102a95780638da5cb5b146102b157806395d89b41146102d6578063a22cb465146102de578063abfe5d57146102f157600080fd5b8063214e563c11610130578063214e563c146102055780632eb2c2d61461020e5780633ea521ef146102215780634865bed2146102345780634e1273f4146102475780634f558e791461026757600080fd5b8062fdd58e14610177578063018cc90d1461019d57806301ffc9a7146101b257806306fdde03146101d55780630e89341c146101ea57806318160ddd146101fd575b600080fd5b61018a610185366004611a66565b6103a8565b6040519081526020015b60405180910390f35b6101b06101ab366004611a90565b6103d0565b005b6101c56101c0366004611ac8565b6106c0565b6040519015158152602001610194565b6101dd610710565b6040516101949190611b32565b6101dd6101f8366004611b45565b61079e565b60055461018a565b61018a600a5481565b6101b061021c366004611caa565b610832565b6101b061022f366004611b45565b610899565b6101b0610242366004611d5d565b6109c4565b61025a610255366004611dd4565b610a95565b6040516101949190611ed7565b6101c5610275366004611b45565b600090815260046020526040902054151590565b61029c610297366004611b45565b610b61565b6040516101949190611f39565b6101b0610d05565b6003546001600160a01b03165b6040516001600160a01b039091168152602001610194565b6101dd610d19565b6101b06102ec366004611f5a565b610d26565b6102f9610d35565b6040516101949190611f91565b61018a610314366004611b45565b60009081526004602052604090205490565b6008546102be906001600160a01b031681565b6101b0610347366004611ff6565b610f3a565b6101c561035a366004612078565b611014565b6101b061036d3660046120ab565b611042565b6101b0610380366004612103565b6110a1565b610398610393366004611b45565b6110df565b604051610194949392919061211e565b6000818152602081815260408083206001600160a01b03861684529091529020545b92915050565b600a548211156103fb5760405162461bcd60e51b81526004016103f290612157565b60405180910390fd5b600082116104405760405162461bcd60e51b815260206004820152601260248201527104361722049442063616e6e6f7420626520360741b60448201526064016103f2565b60008281526009602052604080822081516080810190925280548290829061046790612186565b80601f016020809104026020016040519081016040528092919081815260200182805461049390612186565b80156104e05780601f106104b5576101008083540402835291602001916104e0565b820191906000526020600020905b8154815290600101906020018083116104c357829003601f168201915b505050505081526020016001820180546104f990612186565b80601f016020809104026020016040519081016040528092919081815260200182805461052590612186565b80156105725780601f1061054757610100808354040283529160200191610572565b820191906000526020600020905b81548152906001019060200180831161055557829003601f168201915b5050505050815260200160028201548152602001600382015481525050905060008282604001516105a391906121d0565b6008546040516323b872dd60e01b8152336004820152306024820152604481018390529192506001600160a01b0316906323b872dd906064016020604051808303816000875af11580156105fb573d6000803e3d6000fd5b505050506040513d601f19601f8201168201806040525081019061061f91906121e7565b6106625760405162461bcd60e51b81526020600482015260146024820152731554d115081d1c985b9cd9995c8819985a5b195960621b60448201526064016103f2565b61067d33858560405180602001604052806000815250611217565b6040805184815260208101839052859133917f1da4ee0002ac68a3c81d8d24c2de5ad2562ab6e3dc3f7ad519beb95b58da405c910160405180910390a350505050565b60006001600160e01b03198216636cdb3d1360e11b14806106f157506001600160e01b031982166303a24d0760e21b145b806103ca57506301ffc9a760e01b6001600160e01b03198316146103ca565b6006805461071d90612186565b80601f016020809104026020016040519081016040528092919081815260200182805461074990612186565b80156107965780601f1061076b57610100808354040283529160200191610796565b820191906000526020600020905b81548152906001019060200180831161077957829003601f168201915b505050505081565b6060600280546107ad90612186565b80601f01602080910402602001604051908101604052809291908181526020018280546107d990612186565b80156108265780601f106107fb57610100808354040283529160200191610826565b820191906000526020600020905b81548152906001019060200180831161080957829003601f168201915b50505050509050919050565b336001600160a01b038616811480159061085357506108518682611014565b155b156108845760405163711bec9160e11b81526001600160a01b038083166004830152871660248201526044016103f2565b6108918686868686611274565b505050505050565b6108a16112db565b6008546001600160a01b031663a9059cbb6108c46003546001600160a01b031690565b6040516001600160e01b031960e084901b1681526001600160a01b039091166004820152602481018490526044016020604051808303816000875af1158015610911573d6000803e3d6000fd5b505050506040513d601f19601f8201168201806040525081019061093591906121e7565b6109735760405162461bcd60e51b815260206004820152600f60248201526e15da5d1a191c985dc819985a5b1959608a1b60448201526064016103f2565b6003546001600160a01b03166001600160a01b03167fb0bd88cdae83f74f918eb6bf26d99dcb3c1530530f339233b029e3b6a00ac50b826040516109b991815260200190565b60405180910390a250565b6109cc6112db565b600a80549060006109dc83612204565b909155505060408051608081018252858152602080820186905281830185905260608201849052600a54600090815260099091529190912081518190610a229082612269565b5060208201516001820190610a379082612269565b506040820151816002015560608201518160030155905050600a547f1d26cfb076fd58c1fa5695bb34e5556995a0aa34ecc601438f9957d6a71439a385858585604051610a87949392919061211e565b60405180910390a250505050565b60608151835114610ac65781518351604051635b05999160e01b8152600481019290925260248201526044016103f2565b600083516001600160401b03811115610ae157610ae1611b5e565b604051908082528060200260200182016040528015610b0a578160200160208202803683370190505b50905060005b8451811015610b5957602080820286010151610b34906020808402870101516103a8565b828281518110610b4657610b46612327565b6020908102919091010152600101610b10565b509392505050565b610b8c6040518060800160405280606081526020016060815260200160008152602001600081525090565b600a54821115610bae5760405162461bcd60e51b81526004016103f290612157565b60008281526009602052604090819020815160808101909252805482908290610bd690612186565b80601f0160208091040260200160405190810160405280929190818152602001828054610c0290612186565b8015610c4f5780601f10610c2457610100808354040283529160200191610c4f565b820191906000526020600020905b815481529060010190602001808311610c3257829003601f168201915b50505050508152602001600182018054610c6890612186565b80601f0160208091040260200160405190810160405280929190818152602001828054610c9490612186565b8015610ce15780601f10610cb657610100808354040283529160200191610ce1565b820191906000526020600020905b815481529060010190602001808311610cc457829003601f168201915b50505050508152602001600282015481526020016003820154815250509050919050565b610d0d6112db565b610d176000611308565b565b6007805461071d90612186565b610d3133838361135a565b5050565b60606000600a546001600160401b03811115610d5357610d53611b5e565b604051908082528060200260200182016040528015610daf57816020015b610d9c6040518060800160405280606081526020016060815260200160008152602001600081525090565b815260200190600190039081610d715790505b50905060005b600a54811015610f345760008181526009602052604090819020815160808101909252805482908290610de790612186565b80601f0160208091040260200160405190810160405280929190818152602001828054610e1390612186565b8015610e605780601f10610e3557610100808354040283529160200191610e60565b820191906000526020600020905b815481529060010190602001808311610e4357829003601f168201915b50505050508152602001600182018054610e7990612186565b80601f0160208091040260200160405190810160405280929190818152602001828054610ea590612186565b8015610ef25780601f10610ec757610100808354040283529160200191610ef2565b820191906000526020600020905b815481529060010190602001808311610ed557829003601f168201915b5050505050815260200160028201548152602001600382015481525050828281518110610f2157610f21612327565b6020908102919091010152600101610db5565b50919050565b610f426112db565b600a54851115610f645760405162461bcd60e51b81526004016103f290612157565b60408051608081018252858152602080820186905281830185905260608201849052600088815260099091529190912081518190610fa29082612269565b5060208201516001820190610fb79082612269565b506040820151816002015560608201518160030155905050847fea50b1fdc143acfaf5557c330f64f8d775164696058c46fd77718036947b3b5b85858585604051611005949392919061211e565b60405180910390a25050505050565b6001600160a01b03918216600090815260016020908152604080832093909416825291909152205460ff1690565b336001600160a01b038616811480159061106357506110618682611014565b155b156110945760405163711bec9160e11b81526001600160a01b038083166004830152871660248201526044016103f2565b61089186868686866113f0565b6110a96112db565b6001600160a01b0381166110d357604051631e4fbdf760e01b8152600060048201526024016103f2565b6110dc81611308565b50565b6009602052600090815260409020805481906110fa90612186565b80601f016020809104026020016040519081016040528092919081815260200182805461112690612186565b80156111735780601f1061114857610100808354040283529160200191611173565b820191906000526020600020905b81548152906001019060200180831161115657829003601f168201915b50505050509080600101805461118890612186565b80601f01602080910402602001604051908101604052809291908181526020018280546111b490612186565b80156112015780601f106111d657610100808354040283529160200191611201565b820191906000526020600020905b8154815290600101906020018083116111e457829003601f168201915b5050505050908060020154908060030154905084565b6001600160a01b03841661124157604051632bfa23e760e11b8152600060048201526024016103f2565b6040805160018082526020820186905281830190815260608201859052608082019092529061089160008784848761147e565b6001600160a01b03841661129e57604051632bfa23e760e11b8152600060048201526024016103f2565b6001600160a01b0385166112c757604051626a0d4560e21b8152600060048201526024016103f2565b6112d4858585858561147e565b5050505050565b6003546001600160a01b03163314610d175760405163118cdaa760e01b81523360048201526024016103f2565b600380546001600160a01b038381166001600160a01b0319831681179093556040519116919082907f8be0079c531659141344cd1fd0a4f28419497f9722a3daafe3b4186f6b6457e090600090a35050565b6001600160a01b0382166113835760405162ced3e160e81b8152600060048201526024016103f2565b6001600160a01b03838116600081815260016020908152604080832094871680845294825291829020805460ff191686151590811790915591519182527f17307eab39ab6107e8899845ad3d59bd9653f200f220920489ca2b5937696c31910160405180910390a3505050565b6001600160a01b03841661141a57604051632bfa23e760e11b8152600060048201526024016103f2565b6001600160a01b03851661144357604051626a0d4560e21b8152600060048201526024016103f2565b60408051600180825260208201869052818301908152606082018590526080820190925290611475878784848761147e565b50505050505050565b61148a858585856114d1565b6001600160a01b038416156112d457825133906001036114c357602084810151908401516114bc8389898585896114e3565b5050610891565b610891818787878787611607565b6114dd848484846116f0565b50505050565b6001600160a01b0384163b156108915760405163f23a6e6160e01b81526001600160a01b0385169063f23a6e6190611527908990899088908890889060040161233d565b6020604051808303816000875af1925050508015611562575060408051601f3d908101601f1916820190925261155f91810190612382565b60015b6115cb573d808015611590576040519150601f19603f3d011682016040523d82523d6000602084013e611595565b606091505b5080516000036115c357604051632bfa23e760e11b81526001600160a01b03861660048201526024016103f2565b805181602001fd5b6001600160e01b0319811663f23a6e6160e01b1461147557604051632bfa23e760e11b81526001600160a01b03861660048201526024016103f2565b6001600160a01b0384163b156108915760405163bc197c8160e01b81526001600160a01b0385169063bc197c819061164b908990899088908890889060040161239f565b6020604051808303816000875af1925050508015611686575060408051601f3d908101601f1916820190925261168391810190612382565b60015b6116b4573d808015611590576040519150601f19603f3d011682016040523d82523d6000602084013e611595565b6001600160e01b0319811663bc197c8160e01b1461147557604051632bfa23e760e11b81526001600160a01b03861660048201526024016103f2565b6116fc84848484611836565b6001600160a01b0384166117a6576000805b835181101561178c57600083828151811061172b5761172b612327565b60200260200101519050806004600087858151811061174c5761174c612327565b60200260200101518152602001908152602001600020600082825461177191906123fd565b90915550611781905081846123fd565b92505060010161170e565b50806005600082825461179f91906123fd565b9091555050505b6001600160a01b0383166114dd576000805b83518110156118255760008382815181106117d5576117d5612327565b6020026020010151905080600460008785815181106117f6576117f6612327565b6020908102919091018101518252810191909152604001600020805491909103905591909101906001016117b8565b506005805491909103905550505050565b80518251146118655781518151604051635b05999160e01b8152600481019290925260248201526044016103f2565b3360005b835181101561196b576020818102858101820151908501909101516001600160a01b0388161561191c576000828152602081815260408083206001600160a01b038c168452909152902054818110156118f5576040516303dee4c560e01b81526001600160a01b038a1660048201526024810182905260448101839052606481018490526084016103f2565b6000838152602081815260408083206001600160a01b038d16845290915290209082900390555b6001600160a01b03871615611961576000828152602081815260408083206001600160a01b038b1684529091528120805483929061195b9084906123fd565b90915550505b5050600101611869565b5082516001036119ec5760208301516000906020840151909150856001600160a01b0316876001600160a01b0316846001600160a01b03167fc3d58168c5ae7397731d063d5bbf3d657854427343f4c083240f7aacaa2d0f6285856040516119dd929190918252602082015260400190565b60405180910390a450506112d4565b836001600160a01b0316856001600160a01b0316826001600160a01b03167f4a39dc06d4c0dbc64b70af90fd698a233a518aa5d07e595d983b8c0526c8f7fb8686604051611a3b929190612410565b60405180910390a45050505050565b80356001600160a01b0381168114611a6157600080fd5b919050565b60008060408385031215611a7957600080fd5b611a8283611a4a565b946020939093013593505050565b60008060408385031215611aa357600080fd5b50508035926020909101359150565b6001600160e01b0319811681146110dc57600080fd5b600060208284031215611ada57600080fd5b8135611ae581611ab2565b9392505050565b6000815180845260005b81811015611b1257602081850181015186830182015201611af6565b506000602082860101526020601f19601f83011685010191505092915050565b602081526000611ae56020830184611aec565b600060208284031215611b5757600080fd5b5035919050565b634e487b7160e01b600052604160045260246000fd5b604051601f8201601f191681016001600160401b0381118282101715611b9c57611b9c611b5e565b604052919050565b60006001600160401b03821115611bbd57611bbd611b5e565b5060051b60200190565b600082601f830112611bd857600080fd5b8135611beb611be682611ba4565b611b74565b8082825260208201915060208360051b860101925085831115611c0d57600080fd5b602085015b83811015611c2a578035835260209283019201611c12565b5095945050505050565b600082601f830112611c4557600080fd5b8135602083016000806001600160401b03841115611c6557611c65611b5e565b50601f8301601f1916602001611c7a81611b74565b915050828152858383011115611c8f57600080fd5b82826020830137600092810160200192909252509392505050565b600080600080600060a08688031215611cc257600080fd5b611ccb86611a4a565b9450611cd960208701611a4a565b935060408601356001600160401b03811115611cf457600080fd5b611d0088828901611bc7565b93505060608601356001600160401b03811115611d1c57600080fd5b611d2888828901611bc7565b92505060808601356001600160401b03811115611d4457600080fd5b611d5088828901611c34565b9150509295509295909350565b60008060008060808587031215611d7357600080fd5b84356001600160401b03811115611d8957600080fd5b611d9587828801611c34565b94505060208501356001600160401b03811115611db157600080fd5b611dbd87828801611c34565b949794965050505060408301359260600135919050565b60008060408385031215611de757600080fd5b82356001600160401b03811115611dfd57600080fd5b8301601f81018513611e0e57600080fd5b8035611e1c611be682611ba4565b8082825260208201915060208360051b850101925087831115611e3e57600080fd5b6020840193505b82841015611e6757611e5684611a4a565b825260209384019390910190611e45565b945050505060208301356001600160401b03811115611e8557600080fd5b611e9185828601611bc7565b9150509250929050565b600081518084526020840193506020830160005b82811015611ecd578151865260209586019590910190600101611eaf565b5093949350505050565b602081526000611ae56020830184611e9b565b6000815160808452611eff6080850182611aec565b905060208301518482036020860152611f188282611aec565b91505060408301516040850152606083015160608501528091505092915050565b602081526000611ae56020830184611eea565b80151581146110dc57600080fd5b60008060408385031215611f6d57600080fd5b611f7683611a4a565b91506020830135611f8681611f4c565b809150509250929050565b6000602082016020835280845180835260408501915060408160051b86010192506020860160005b82811015611fea57603f19878603018452611fd5858351611eea565b94506020938401939190910190600101611fb9565b50929695505050505050565b600080600080600060a0868803121561200e57600080fd5b8535945060208601356001600160401b0381111561202b57600080fd5b61203788828901611c34565b94505060408601356001600160401b0381111561205357600080fd5b61205f88828901611c34565b9598949750949560608101359550608001359392505050565b6000806040838503121561208b57600080fd5b61209483611a4a565b91506120a260208401611a4a565b90509250929050565b600080600080600060a086880312156120c357600080fd5b6120cc86611a4a565b94506120da60208701611a4a565b9350604086013592506060860135915060808601356001600160401b03811115611d4457600080fd5b60006020828403121561211557600080fd5b611ae582611a4a565b6080815260006121316080830187611aec565b82810360208401526121438187611aec565b604084019590955250506060015292915050565b60208082526015908201527410d85c88125108191bd95cc81b9bdd08195e1a5cdd605a1b604082015260600190565b600181811c9082168061219a57607f821691505b602082108103610f3457634e487b7160e01b600052602260045260246000fd5b634e487b7160e01b600052601160045260246000fd5b80820281158282048414176103ca576103ca6121ba565b6000602082840312156121f957600080fd5b8151611ae581611f4c565b600060018201612216576122166121ba565b5060010190565b601f82111561226457806000526020600020601f840160051c810160208510156122445750805b601f840160051c820191505b818110156112d45760008155600101612250565b505050565b81516001600160401b0381111561228257612282611b5e565b612296816122908454612186565b8461221d565b6020601f8211600181146122ca57600083156122b25750848201515b600019600385901b1c1916600184901b1784556112d4565b600084815260208120601f198516915b828110156122fa57878501518255602094850194600190920191016122da565b50848210156123185786840151600019600387901b60f8161c191681555b50505050600190811b01905550565b634e487b7160e01b600052603260045260246000fd5b6001600160a01b03868116825285166020820152604081018490526060810183905260a06080820181905260009061237790830184611aec565b979650505050505050565b60006020828403121561239457600080fd5b8151611ae581611ab2565b6001600160a01b0386811682528516602082015260a0604082018190526000906123cb90830186611e9b565b82810360608401526123dd8186611e9b565b905082810360808401526123f18185611aec565b98975050505050505050565b808201808211156103ca576103ca6121ba565b6040815260006124236040830185611e9b565b82810360208401526124358185611e9b565b9594505050505056fea2646970667358221220940fb52f0175e0f8cc37e4b2708e6bc685189269f580584efea8c2fd6b8b107a64736f6c634300081a003368747470733a2f2f697066732e696f2f697066732f516d534358465461356276796942423867623875597533594e6879464e76687963704a37764e6455786a714c58502f7b69647d2e6a736f6e","linkReferences":{}},"methodIdentifiers":{"USDT()":"c54e44eb","addCar(string,string,uint256,uint256)":"4865bed2","balanceOf(address,uint256)":"00fdd58e","balanceOfBatch(address[],uint256[])":"4e1273f4","buyCar(uint256,uint256)":"018cc90d","cars(uint256)":"f7746e36","editCar(uint256,string,string,uint256,uint256)":"e16706dd","exists(uint256)":"4f558e79","getAllCars()":"abfe5d57","getCar(uint256)":"5e8be190","isApprovedForAll(address,address)":"e985e9c5","name()":"06fdde03","owner()":"8da5cb5b","renounceOwnership()":"715018a6","safeBatchTransferFrom(address,address,uint256[],uint256[],bytes)":"2eb2c2d6","safeTransferFrom(address,address,uint256,uint256,bytes)":"f242432a","setApprovalForAll(address,bool)":"a22cb465","supportsInterface(bytes4)":"01ffc9a7","symbol()":"95d89b41","totalCars()":"214e563c","totalSupply()":"18160ddd","totalSupply(uint256)":"bd85b039","transferOwnership(address)":"f2fde38b","uri(uint256)":"0e89341c","withdrawUSDT(uint256)":"3ea521ef"},"id":0}