{"abi":[{"type":"constructor","inputs":[{"name":"_CC","type":"address","internalType":"contract ChainCars"},{"name":"_USDT","type":"address","internalType":"contract IERC20"}],"stateMutability":"nonpayable"},{"type":"function","name":"CC","inputs":[],"outputs":[{"name":"","type":"address","internalType":"contract ChainCars"}],"stateMutability":"view"},{"type":"function","name":"USDT","inputs":[],"outputs":[{"name":"","type":"address","internalType":"contract IERC20"}],"stateMutability":"view"},{"type":"function","name":"addStakingTier","inputs":[{"name":"_category","type":"uint256","internalType":"uint256"},{"name":"_apy","type":"uint256","internalType":"uint256"},{"name":"_price","type":"uint256","internalType":"uint256"}],"outputs":[],"stateMutability":"nonpayable"},{"type":"function","name":"calculateRewards","inputs":[{"name":"_user","type":"address","internalType":"address"},{"name":"_index","type":"uint256","internalType":"uint256"}],"outputs":[{"name":"","type":"uint256","internalType":"uint256"}],"stateMutability":"view"},{"type":"function","name":"claimRewards","inputs":[{"name":"_index","type":"uint256","internalType":"uint256"}],"outputs":[],"stateMutability":"nonpayable"},{"type":"function","name":"getStakingInfo","inputs":[{"name":"_user","type":"address","internalType":"address"},{"name":"_index","type":"uint256","internalType":"uint256"}],"outputs":[{"name":"","type":"tuple","internalType":"struct StakingChainCars.StakingInfo","components":[{"name":"tokenId","type":"uint256","internalType":"uint256"},{"name":"amount","type":"uint256","internalType":"uint256"},{"name":"timestamp","type":"uint256","internalType":"uint256"},{"name":"lastClaim","type":"uint256","internalType":"uint256"},{"name":"apy","type":"uint256","internalType":"uint256"},{"name":"price","type":"uint256","internalType":"uint256"},{"name":"unstaked","type":"bool","internalType":"bool"}]}],"stateMutability":"view"},{"type":"function","name":"getStakingsPerAddress","inputs":[{"name":"_address","type":"address","internalType":"address"}],"outputs":[{"name":"","type":"tuple[]","internalType":"struct StakingChainCars.StakingInfo[]","components":[{"name":"tokenId","type":"uint256","internalType":"uint256"},{"name":"amount","type":"uint256","internalType":"uint256"},{"name":"timestamp","type":"uint256","internalType":"uint256"},{"name":"lastClaim","type":"uint256","internalType":"uint256"},{"name":"apy","type":"uint256","internalType":"uint256"},{"name":"price","type":"uint256","internalType":"uint256"},{"name":"unstaked","type":"bool","internalType":"bool"}]}],"stateMutability":"view"},{"type":"function","name":"onERC1155BatchReceived","inputs":[{"name":"","type":"address","internalType":"address"},{"name":"","type":"address","internalType":"address"},{"name":"","type":"uint256[]","internalType":"uint256[]"},{"name":"","type":"uint256[]","internalType":"uint256[]"},{"name":"","type":"bytes","internalType":"bytes"}],"outputs":[{"name":"","type":"bytes4","internalType":"bytes4"}],"stateMutability":"pure"},{"type":"function","name":"onERC1155Received","inputs":[{"name":"","type":"address","internalType":"address"},{"name":"","type":"address","internalType":"address"},{"name":"","type":"uint256","internalType":"uint256"},{"name":"","type":"uint256","internalType":"uint256"},{"name":"","type":"bytes","internalType":"bytes"}],"outputs":[{"name":"","type":"bytes4","internalType":"bytes4"}],"stateMutability":"pure"},{"type":"function","name":"owner","inputs":[],"outputs":[{"name":"","type":"address","internalType":"address"}],"stateMutability":"view"},{"type":"function","name":"renounceOwnership","inputs":[],"outputs":[],"stateMutability":"nonpayable"},{"type":"function","name":"stake","inputs":[{"name":"_tokenId","type":"uint256","internalType":"uint256"},{"name":"_amount","type":"uint256","internalType":"uint256"}],"outputs":[],"stateMutability":"nonpayable"},{"type":"function","name":"stakingBalances","inputs":[{"name":"","type":"address","internalType":"address"},{"name":"","type":"uint256","internalType":"uint256"}],"outputs":[{"name":"tokenId","type":"uint256","internalType":"uint256"},{"name":"amount","type":"uint256","internalType":"uint256"},{"name":"timestamp","type":"uint256","internalType":"uint256"},{"name":"lastClaim","type":"uint256","internalType":"uint256"},{"name":"apy","type":"uint256","internalType":"uint256"},{"name":"price","type":"uint256","internalType":"uint256"},{"name":"unstaked","type":"bool","internalType":"bool"}],"stateMutability":"view"},{"type":"function","name":"stakingTiers","inputs":[{"name":"","type":"uint256","internalType":"uint256"}],"outputs":[{"name":"category","type":"uint256","internalType":"uint256"},{"name":"apy","type":"uint256","internalType":"uint256"},{"name":"price","type":"uint256","internalType":"uint256"}],"stateMutability":"view"},{"type":"function","name":"transferOwnership","inputs":[{"name":"newOwner","type":"address","internalType":"address"}],"outputs":[],"stateMutability":"nonpayable"},{"type":"function","name":"unstake","inputs":[{"name":"_index","type":"uint256","internalType":"uint256"}],"outputs":[],"stateMutability":"nonpayable"},{"type":"function","name":"withdrawUSDT","inputs":[{"name":"_amount","type":"uint256","internalType":"uint256"}],"outputs":[],"stateMutability":"nonpayable"},{"type":"event","name":"OwnershipTransferred","inputs":[{"name":"previousOwner","type":"address","indexed":true,"internalType":"address"},{"name":"newOwner","type":"address","indexed":true,"internalType":"address"}],"anonymous":false},{"type":"event","name":"RewardClaimed","inputs":[{"name":"user","type":"address","indexed":true,"internalType":"address"},{"name":"tokenId","type":"uint256","indexed":false,"internalType":"uint256"},{"name":"amount","type":"uint256","indexed":false,"internalType":"uint256"}],"anonymous":false},{"type":"event","name":"Staked","inputs":[{"name":"user","type":"address","indexed":true,"internalType":"address"},{"name":"tokenId","type":"uint256","indexed":false,"internalType":"uint256"},{"name":"amount","type":"uint256","indexed":false,"internalType":"uint256"}],"anonymous":false},{"type":"event","name":"StakingTierAdded","inputs":[{"name":"tokenId","type":"uint256","indexed":false,"internalType":"uint256"},{"name":"rewardRate","type":"uint256","indexed":false,"internalType":"uint256"},{"name":"price","type":"uint256","indexed":false,"internalType":"uint256"}],"anonymous":false},{"type":"event","name":"Unstaked","inputs":[{"name":"user","type":"address","indexed":true,"internalType":"address"},{"name":"tokenId","type":"uint256","indexed":false,"internalType":"uint256"},{"name":"amount","type":"uint256","indexed":false,"internalType":"uint256"}],"anonymous":false},{"type":"error","name":"OwnableInvalidOwner","inputs":[{"name":"owner","type":"address","internalType":"address"}]},{"type":"error","name":"OwnableUnauthorizedAccount","inputs":[{"name":"account","type":"address","internalType":"address"}]}],"bytecode":{"object":"0x60806040523480156200001157600080fd5b50604051620017b7380380620017b7833981016040819052620000349162000102565b33806200005b57604051631e4fbdf760e01b81526000600482015260240160405180910390fd5b620000668162000099565b50600180546001600160a01b039384166001600160a01b0319918216179091556002805492909316911617905562000141565b600080546001600160a01b038381166001600160a01b0319831681178455604051919092169283917f8be0079c531659141344cd1fd0a4f28419497f9722a3daafe3b4186f6b6457e09190a35050565b6001600160a01b0381168114620000ff57600080fd5b50565b600080604083850312156200011657600080fd5b82516200012381620000e9565b60208401519092506200013681620000e9565b809150509250929050565b61166680620001516000396000f3fe608060405234801561001057600080fd5b506004361061010b5760003560e01c80637b0472f0116100a2578063c54e44eb11610071578063c54e44eb14610291578063d50267ee146102a4578063f23a6e61146102ee578063f2fde38b1461030e578063f64aedfa1461032157600080fd5b80637b0472f0146102115780638da5cb5b14610224578063bc197c8114610235578063beb8314c1461027057600080fd5b806356b316d6116100de57806356b316d6146101745780636053854d146101be5780636509e776146101de578063715018a61461020957600080fd5b80630962ef79146101105780631a60ce1e146101255780632e17de781461014e5780633ea521ef14610161575b600080fd5b61012361011e366004611200565b610334565b005b610138610133366004611235565b610631565b604051610145919061129d565b60405180910390f35b61012361015c366004611200565b6106eb565b61012361016f366004611200565b6109c3565b6101876101823660046112eb565b610b3b565b604080519788526020880196909652948601939093526060850191909152608084015260a0830152151560c082015260e001610145565b6101d16101cc3660046112eb565b610b98565b6040516101459190611315565b6001546101f1906001600160a01b031681565b6040516001600160a01b039091168152602001610145565b610123610c71565b61012361021f366004611323565b610c85565b6000546001600160a01b03166101f1565b6102576102433660046113d3565b63bc197c8160e01b98975050505050505050565b6040516001600160e01b03199091168152602001610145565b61028361027e3660046112eb565b610fd7565b604051908152602001610145565b6002546101f1906001600160a01b031681565b6102d36102b2366004611200565b60036020526000908152604090208054600182015460029092015490919083565b60408051938452602084019290925290820152606001610145565b6102576102fc36600461148e565b63f23a6e6160e01b9695505050505050565b61012361031c366004611235565b611071565b61012361032f366004611506565b6110ac565b33600090815260046020526040812080548390811061035557610355611532565b60009182526020909120600790910201600681015490915060ff16156103b45760405162461bcd60e51b815260206004820152600f60248201526e151bdad95b9cc81d5b9cdd185ad959608a1b60448201526064015b60405180910390fd5b60038101546103c69062093a8061155e565b4210156104205760405162461bcd60e51b815260206004820152602260248201527f526577617264732063616e20626520636c61696d6564206f6e63652061207765604482015261656b60f01b60648201526084016103ab565b600061042c3384610fd7565b9050600081116104755760405162461bcd60e51b81526020600482015260146024820152734e6f207265776172647320617661696c61626c6560601b60448201526064016103ab565b4260038301556002546040516370a0823160e01b815230600482015282916001600160a01b0316906370a0823190602401602060405180830381865afa1580156104c3573d6000803e3d6000fd5b505050506040513d601f19601f820116820180604052508101906104e79190611571565b10156105355760405162461bcd60e51b815260206004820152601d60248201527f496e73756666696369656e74205553445420696e20636f6e747261637400000060448201526064016103ab565b60025460405163a9059cbb60e01b8152336004820152602481018390526001600160a01b039091169063a9059cbb906044016020604051808303816000875af1158015610586573d6000803e3d6000fd5b505050506040513d601f19601f820116820180604052508101906105aa919061158a565b6105ef5760405162461bcd60e51b815260206004820152601660248201527514995dd85c99081d1c985b9cd9995c8819985a5b195960521b60448201526064016103ab565b8154604080519182526020820183905233917ff01da32686223933d8a18a391060918c7f11a3648639edd87ae013e2e2731743910160405180910390a2505050565b6001600160a01b0381166000908152600460209081526040808320805482518185028101850190935280835260609492939192909184015b828210156106e05760008481526020908190206040805160e0810182526007860290920180548352600180820154848601526002820154928401929092526003810154606084015260048101546080840152600581015460a08401526006015460ff16151560c08301529083529092019101610669565b505050509050919050565b33600090815260046020526040812080548390811061070c5761070c611532565b60009182526020909120600790910201600681015490915060ff16156107745760405162461bcd60e51b815260206004820152601760248201527f546f6b656e7320616c726561647920756e7374616b656400000000000000000060448201526064016103ab565b60068101805460ff19166001179055600061078f3384610fd7565b60018084015490548454604051637921219560e11b815293945091926001600160a01b039091169163f242432a916107d091309133919087906004016115ac565b600060405180830381600087803b1580156107ea57600080fd5b505af11580156107fe573d6000803e3d6000fd5b50505050600082111561097f576002546040516370a0823160e01b815230600482015283916001600160a01b0316906370a0823190602401602060405180830381865afa158015610853573d6000803e3d6000fd5b505050506040513d601f19601f820116820180604052508101906108779190611571565b10156108c55760405162461bcd60e51b815260206004820152601d60248201527f496e73756666696369656e74205553445420696e20636f6e747261637400000060448201526064016103ab565b60025460405163a9059cbb60e01b8152336004820152602481018490526001600160a01b039091169063a9059cbb906044016020604051808303816000875af1158015610916573d6000803e3d6000fd5b505050506040513d601f19601f8201168201806040525081019061093a919061158a565b61097f5760405162461bcd60e51b815260206004820152601660248201527514995dd85c99081d1c985b9cd9995c8819985a5b195960521b60448201526064016103ab565b8254604080519182526020820183905233917f7fc4727e062e336010f2c282598ef5f14facb3de68cf8195c2f23e1454b2b74e91015b60405180910390a250505050565b6109cb611183565b6002546040516370a0823160e01b815230600482015282916001600160a01b0316906370a0823190602401602060405180830381865afa158015610a13573d6000803e3d6000fd5b505050506040513d601f19601f82011682018060405250810190610a379190611571565b1015610a855760405162461bcd60e51b815260206004820152601960248201527f496e73756666696369656e7420555344542062616c616e63650000000000000060448201526064016103ab565b60025460405163a9059cbb60e01b8152336004820152602481018390526001600160a01b039091169063a9059cbb906044016020604051808303816000875af1158015610ad6573d6000803e3d6000fd5b505050506040513d601f19601f82011682018060405250810190610afa919061158a565b610b385760405162461bcd60e51b815260206004820152600f60248201526e151c985b9cd9995c8819985a5b1959608a1b60448201526064016103ab565b50565b60046020528160005260406000208181548110610b5757600080fd5b600091825260209091206007909102018054600182015460028301546003840154600485015460058601546006909601549497509295509093909260ff1687565b610bda6040518060e001604052806000815260200160008152602001600081526020016000815260200160008152602001600081526020016000151581525090565b6001600160a01b0383166000908152600460205260409020805483908110610c0457610c04611532565b60009182526020918290206040805160e0810182526007909302909101805483526001810154938301939093526002830154908201526003820154606082015260048201546080820152600582015460a082015260069091015460ff16151560c082015290505b92915050565b610c79611183565b610c8360006111b0565b565b600082815260036020526040902060010154610cdc5760405162461bcd60e51b815260206004820152601660248201527514dd185ada5b99c81d1a595c881b9bdd08199bdd5b9960521b60448201526064016103ab565b600154604051627eeac760e11b81523360048201526024810184905282916001600160a01b03169062fdd58e90604401602060405180830381865afa158015610d29573d6000803e3d6000fd5b505050506040513d601f19601f82011682018060405250810190610d4d9190611571565b1015610d8f5760405162461bcd60e51b81526020600482015260116024820152704e6f7420656e6f75676820746f6b656e7360781b60448201526064016103ab565b600154604051637921219560e11b81526001600160a01b039091169063f242432a90610dc59033903090879087906004016115ac565b600060405180830381600087803b158015610ddf57600080fd5b505af1158015610df3573d6000803e3d6000fd5b50506001546040516362dae7ab60e11b815260048101869052600093506001600160a01b03909116915063c5b5cf5690602401602060405180830381865afa158015610e43573d6000803e3d6000fd5b505050506040513d601f19601f82011682018060405250810190610e679190611571565b90506000600360008381526020019081526020016000206040518060600160405290816000820154815260200160018201548152602001600282015481525050905060046000336001600160a01b03166001600160a01b031681526020019081526020016000206040518060e001604052808681526020018581526020014281526020014281526020018360200151815260200183604001518152602001600015158152509080600181540180825580915050600190039060005260206000209060070201600090919091909150600082015181600001556020820151816001015560408201518160020155606082015181600301556080820151816004015560a0820151816005015560c08201518160060160006101000a81548160ff0219169083151502179055505050336001600160a01b03167f1449c6dd7851abc30abf37f57715f492010519147cc2652fbc38202c18a6ee9085856040516109b5929190918252602082015260400190565b6001600160a01b038216600090815260046020526040812080548291908490811061100457611004611532565b90600052602060002090600702019050600081600301544261102691906115e4565b9050600063bbf81e008284600401548560010154866005015461104991906115f7565b61105391906115f7565b61105d91906115f7565b611067919061160e565b9695505050505050565b611079611183565b6001600160a01b0381166110a357604051631e4fbdf760e01b8152600060048201526024016103ab565b610b38816111b0565b6110b4611183565b60048311156111055760405162461bcd60e51b815260206004820152601760248201527f43617465676f727920646f6573206e6f7420657869737400000000000000000060448201526064016103ab565b6040805160608082018352858252602080830186815283850186815260008981526003845286902094518555905160018501555160029093019290925582518681529182018590529181018390527f40d8fd7714792abf1d4ac835462b6cf6f0170b87d65e38e5e407f1e35862f4b8910160405180910390a1505050565b6000546001600160a01b03163314610c835760405163118cdaa760e01b81523360048201526024016103ab565b600080546001600160a01b038381166001600160a01b0319831681178455604051919092169283917f8be0079c531659141344cd1fd0a4f28419497f9722a3daafe3b4186f6b6457e09190a35050565b60006020828403121561121257600080fd5b5035919050565b80356001600160a01b038116811461123057600080fd5b919050565b60006020828403121561124757600080fd5b61125082611219565b9392505050565b805182526020810151602083015260408101516040830152606081015160608301526080810151608083015260a081015160a083015260c0810151151560c08301525050565b6020808252825182820181905260009190848201906040850190845b818110156112df576112cc838551611257565b9284019260e092909201916001016112b9565b50909695505050505050565b600080604083850312156112fe57600080fd5b61130783611219565b946020939093013593505050565b60e08101610c6b8284611257565b6000806040838503121561133657600080fd5b50508035926020909101359150565b60008083601f84011261135757600080fd5b50813567ffffffffffffffff81111561136f57600080fd5b6020830191508360208260051b850101111561138a57600080fd5b9250929050565b60008083601f8401126113a357600080fd5b50813567ffffffffffffffff8111156113bb57600080fd5b60208301915083602082850101111561138a57600080fd5b60008060008060008060008060a0898b0312156113ef57600080fd5b6113f889611219565b975061140660208a01611219565b9650604089013567ffffffffffffffff8082111561142357600080fd5b61142f8c838d01611345565b909850965060608b013591508082111561144857600080fd5b6114548c838d01611345565b909650945060808b013591508082111561146d57600080fd5b5061147a8b828c01611391565b999c989b5096995094979396929594505050565b60008060008060008060a087890312156114a757600080fd5b6114b087611219565b95506114be60208801611219565b94506040870135935060608701359250608087013567ffffffffffffffff8111156114e857600080fd5b6114f489828a01611391565b979a9699509497509295939492505050565b60008060006060848603121561151b57600080fd5b505081359360208301359350604090920135919050565b634e487b7160e01b600052603260045260246000fd5b634e487b7160e01b600052601160045260246000fd5b80820180821115610c6b57610c6b611548565b60006020828403121561158357600080fd5b5051919050565b60006020828403121561159c57600080fd5b8151801515811461125057600080fd5b6001600160a01b0394851681529290931660208301526040820152606081019190915260a06080820181905260009082015260c00190565b81810381811115610c6b57610c6b611548565b8082028115828204841417610c6b57610c6b611548565b60008261162b57634e487b7160e01b600052601260045260246000fd5b50049056fea2646970667358221220397eaac50ad59e5d9acaaf50b70c21f358ce09d3c06d0e39b62c546fd0da3a6664736f6c63430008170033","linkReferences":{}},"methodIdentifiers":{"CC()":"6509e776","USDT()":"c54e44eb","addStakingTier(uint256,uint256,uint256)":"f64aedfa","calculateRewards(address,uint256)":"beb8314c","claimRewards(uint256)":"0962ef79","getStakingInfo(address,uint256)":"6053854d","getStakingsPerAddress(address)":"1a60ce1e","onERC1155BatchReceived(address,address,uint256[],uint256[],bytes)":"bc197c81","onERC1155Received(address,address,uint256,uint256,bytes)":"f23a6e61","owner()":"8da5cb5b","renounceOwnership()":"715018a6","stake(uint256,uint256)":"7b0472f0","stakingBalances(address,uint256)":"56b316d6","stakingTiers(uint256)":"d50267ee","transferOwnership(address)":"f2fde38b","unstake(uint256)":"2e17de78","withdrawUSDT(uint256)":"3ea521ef"},"id":1}