{"abi":[{"type":"constructor","inputs":[{"name":"_nftToken","type":"address","internalType":"contract IERC1155"},{"name":"_rewardToken","type":"address","internalType":"contract IERC20"}],"stateMutability":"nonpayable"},{"type":"function","name":"claimRewards","inputs":[],"outputs":[],"stateMutability":"nonpayable"},{"type":"function","name":"getStakedTokens","inputs":[{"name":"_user","type":"address","internalType":"address"},{"name":"_tokenId","type":"uint256","internalType":"uint256"}],"outputs":[{"name":"","type":"uint256","internalType":"uint256"}],"stateMutability":"view"},{"type":"function","name":"onERC1155BatchReceived","inputs":[{"name":"operator","type":"address","internalType":"address"},{"name":"from","type":"address","internalType":"address"},{"name":"ids","type":"uint256[]","internalType":"uint256[]"},{"name":"values","type":"uint256[]","internalType":"uint256[]"},{"name":"data","type":"bytes","internalType":"bytes"}],"outputs":[{"name":"","type":"bytes4","internalType":"bytes4"}],"stateMutability":"pure"},{"type":"function","name":"onERC1155Received","inputs":[{"name":"operator","type":"address","internalType":"address"},{"name":"from","type":"address","internalType":"address"},{"name":"id","type":"uint256","internalType":"uint256"},{"name":"value","type":"uint256","internalType":"uint256"},{"name":"data","type":"bytes","internalType":"bytes"}],"outputs":[{"name":"","type":"bytes4","internalType":"bytes4"}],"stateMutability":"pure"},{"type":"function","name":"owner","inputs":[],"outputs":[{"name":"","type":"address","internalType":"address"}],"stateMutability":"view"},{"type":"function","name":"renounceOwnership","inputs":[],"outputs":[],"stateMutability":"nonpayable"},{"type":"function","name":"s_nftToken","inputs":[],"outputs":[{"name":"","type":"address","internalType":"contract IERC1155"}],"stateMutability":"view"},{"type":"function","name":"s_rewardRate","inputs":[],"outputs":[{"name":"","type":"uint256","internalType":"uint256"}],"stateMutability":"view"},{"type":"function","name":"s_rewardToken","inputs":[],"outputs":[{"name":"","type":"address","internalType":"contract IERC20"}],"stateMutability":"view"},{"type":"function","name":"s_stakers","inputs":[{"name":"","type":"address","internalType":"address"}],"outputs":[{"name":"rewardDebt","type":"uint256","internalType":"uint256"},{"name":"lastUpdateTime","type":"uint256","internalType":"uint256"}],"stateMutability":"view"},{"type":"function","name":"setRewardRate","inputs":[{"name":"_newRewardRate","type":"uint256","internalType":"uint256"}],"outputs":[],"stateMutability":"nonpayable"},{"type":"function","name":"stake","inputs":[{"name":"_tokenId","type":"uint256","internalType":"uint256"},{"name":"_amount","type":"uint256","internalType":"uint256"}],"outputs":[],"stateMutability":"nonpayable"},{"type":"function","name":"supportsInterface","inputs":[{"name":"interfaceId","type":"bytes4","internalType":"bytes4"}],"outputs":[{"name":"","type":"bool","internalType":"bool"}],"stateMutability":"view"},{"type":"function","name":"transferOwnership","inputs":[{"name":"newOwner","type":"address","internalType":"address"}],"outputs":[],"stateMutability":"nonpayable"},{"type":"function","name":"unstake","inputs":[{"name":"_tokenId","type":"uint256","internalType":"uint256"},{"name":"_amount","type":"uint256","internalType":"uint256"}],"outputs":[],"stateMutability":"nonpayable"},{"type":"event","name":"OwnershipTransferred","inputs":[{"name":"previousOwner","type":"address","indexed":true,"internalType":"address"},{"name":"newOwner","type":"address","indexed":true,"internalType":"address"}],"anonymous":false},{"type":"event","name":"RewardClaimed","inputs":[{"name":"user","type":"address","indexed":true,"internalType":"address"},{"name":"amount","type":"uint256","indexed":false,"internalType":"uint256"}],"anonymous":false},{"type":"event","name":"Staked","inputs":[{"name":"user","type":"address","indexed":true,"internalType":"address"},{"name":"tokenId","type":"uint256","indexed":false,"internalType":"uint256"},{"name":"amount","type":"uint256","indexed":false,"internalType":"uint256"}],"anonymous":false},{"type":"event","name":"Unstaked","inputs":[{"name":"user","type":"address","indexed":true,"internalType":"address"},{"name":"tokenId","type":"uint256","indexed":false,"internalType":"uint256"},{"name":"amount","type":"uint256","indexed":false,"internalType":"uint256"}],"anonymous":false},{"type":"error","name":"OwnableInvalidOwner","inputs":[{"name":"owner","type":"address","internalType":"address"}]},{"type":"error","name":"OwnableUnauthorizedAccount","inputs":[{"name":"account","type":"address","internalType":"address"}]}],"bytecode":{"object":"0x6080604052606460035534801561001557600080fd5b50604051610d5a380380610d5a833981016040819052610034916100fd565b338061005a57604051631e4fbdf760e01b81526000600482015260240160405180910390fd5b61006381610095565b50600180546001600160a01b039384166001600160a01b03199182161790915560028054929093169116179055610137565b600080546001600160a01b038381166001600160a01b0319831681178455604051919092169283917f8be0079c531659141344cd1fd0a4f28419497f9722a3daafe3b4186f6b6457e09190a35050565b6001600160a01b03811681146100fa57600080fd5b50565b6000806040838503121561011057600080fd5b825161011b816100e5565b602084015190925061012c816100e5565b809150509250929050565b610c14806101466000396000f3fe608060405234801561001057600080fd5b50600436106100f55760003560e01c80638da5cb5b11610097578063eb09564111610066578063eb0956411461021f578063f23a6e611461025e578063f2fde38b1461027e578063f5bfbd131461029157600080fd5b80638da5cb5b146101ad5780639e2c8a5b146101be5780639e447fc6146101d1578063bc197c81146101e457600080fd5b806338ceadfc116100d357806338ceadfc146101545780636374cc001461017f578063715018a6146101925780637b0472f01461019a57600080fd5b806301ffc9a7146100fa5780633179317d14610133578063372500ab1461014a575b600080fd5b61011e61010836600461087e565b6001600160e01b031916630271189760e51b1490565b60405190151581526020015b60405180910390f35b61013c60035481565b60405190815260200161012a565b6101526102a4565b005b600154610167906001600160a01b031681565b6040516001600160a01b03909116815260200161012a565b600254610167906001600160a01b031681565b6101526103d5565b6101526101a83660046108af565b6103e9565b6000546001600160a01b0316610167565b6101526101cc3660046108af565b610592565b6101526101df3660046108d1565b6106e4565b6102066101f2366004610994565b63bc197c8160e01b98975050505050505050565b6040516001600160e01b0319909116815260200161012a565b61024961022d366004610a5b565b6004602052600090815260409020600181015460029091015482565b6040805192835260208301919091520161012a565b61020661026c366004610a76565b63f23a6e6160e01b9695505050505050565b61015261028c366004610a5b565b6106f1565b61013c61029f366004610aee565b61072f565b336000818152600460205260409020906102bd9061075a565b600181018054600090915560025460405163140e25ad60e31b8152600481018390526001600160a01b039091169063a0712d6890602401600060405180830381600087803b15801561030e57600080fd5b505af1158015610322573d6000803e3d6000fd5b505060025460405163a9059cbb60e01b8152336004820152602481018590526001600160a01b03909116925063a9059cbb91506044016020604051808303816000875af1158015610377573d6000803e3d6000fd5b505050506040513d601f19601f8201168201806040525081019061039b9190610b18565b5060405181815233907f106f923f993c2149d49b4255ff723acafa1f2d94393f561d3eda32ae348f72419060200160405180910390a25050565b6103dd610801565b6103e7600061082e565b565b600154604051627eeac760e11b81523360048201526024810184905282916001600160a01b03169062fdd58e90604401602060405180830381865afa158015610436573d6000803e3d6000fd5b505050506040513d601f19601f8201168201806040525081019061045a9190610b3a565b10156104ad5760405162461bcd60e51b815260206004820152601c60248201527f596f7520646f206e6f74206f776e20656e6f75676820746f6b656e730000000060448201526064015b60405180910390fd5b600154604051637921219560e11b81526001600160a01b039091169063f242432a906104e3903390309087908790600401610b53565b600060405180830381600087803b1580156104fd57600080fd5b505af1158015610511573d6000803e3d6000fd5b5050336000818152600460205260409020925061052e915061075a565b6000838152602082905260408120805484929061054c908490610ba1565b9091555050604080518481526020810184905233917f1449c6dd7851abc30abf37f57715f492010519147cc2652fbc38202c18a6ee9091015b60405180910390a2505050565b3360009081526004602090815260408083208584529091529020548111156106085760405162461bcd60e51b8152602060048201526024808201527f596f7520646f206e6f74206861766520656e6f756768207374616b656420746f6044820152636b656e7360e01b60648201526084016104a4565b336000818152600460205260409020906106219061075a565b6000838152602082905260408120805484929061063f908490610bb4565b9091555050600154604051637921219560e11b81526001600160a01b039091169063f242432a9061067a903090339088908890600401610b53565b600060405180830381600087803b15801561069457600080fd5b505af11580156106a8573d6000803e3d6000fd5b505060408051868152602081018690523393507f7fc4727e062e336010f2c282598ef5f14facb3de68cf8195c2f23e1454b2b74e925001610585565b6106ec610801565b600355565b6106f9610801565b6001600160a01b03811661072357604051631e4fbdf760e01b8152600060048201526024016104a4565b61072c8161082e565b50565b6001600160a01b03821660009081526004602090815260408083208484529091529020545b92915050565b6001600160a01b0381166000908152600460205260408120600281015490919081906107869042610bb4565b905060005b600a8110156107d85760008181526020859052604090205480156107cf5782600354826107b89190610bc7565b6107c29190610bc7565b6107cc9085610ba1565b93505b5060010161078b565b50818360010160008282546107ed9190610ba1565b909155505042600290930192909255505050565b6000546001600160a01b031633146103e75760405163118cdaa760e01b81523360048201526024016104a4565b600080546001600160a01b038381166001600160a01b0319831681178455604051919092169283917f8be0079c531659141344cd1fd0a4f28419497f9722a3daafe3b4186f6b6457e09190a35050565b60006020828403121561089057600080fd5b81356001600160e01b0319811681146108a857600080fd5b9392505050565b600080604083850312156108c257600080fd5b50508035926020909101359150565b6000602082840312156108e357600080fd5b5035919050565b80356001600160a01b038116811461090157600080fd5b919050565b60008083601f84011261091857600080fd5b50813567ffffffffffffffff81111561093057600080fd5b6020830191508360208260051b850101111561094b57600080fd5b9250929050565b60008083601f84011261096457600080fd5b50813567ffffffffffffffff81111561097c57600080fd5b60208301915083602082850101111561094b57600080fd5b60008060008060008060008060a0898b0312156109b057600080fd5b6109b9896108ea565b97506109c760208a016108ea565b9650604089013567ffffffffffffffff8111156109e357600080fd5b6109ef8b828c01610906565b909750955050606089013567ffffffffffffffff811115610a0f57600080fd5b610a1b8b828c01610906565b909550935050608089013567ffffffffffffffff811115610a3b57600080fd5b610a478b828c01610952565b999c989b5096995094979396929594505050565b600060208284031215610a6d57600080fd5b6108a8826108ea565b60008060008060008060a08789031215610a8f57600080fd5b610a98876108ea565b9550610aa6602088016108ea565b94506040870135935060608701359250608087013567ffffffffffffffff811115610ad057600080fd5b610adc89828a01610952565b979a9699509497509295939492505050565b60008060408385031215610b0157600080fd5b610b0a836108ea565b946020939093013593505050565b600060208284031215610b2a57600080fd5b815180151581146108a857600080fd5b600060208284031215610b4c57600080fd5b5051919050565b6001600160a01b0394851681529290931660208301526040820152606081019190915260a06080820181905260009082015260c00190565b634e487b7160e01b600052601160045260246000fd5b8082018082111561075457610754610b8b565b8181038181111561075457610754610b8b565b808202811582820484141761075457610754610b8b56fea26469706673582212205b22a3d6710b43791fa6dd58944489d20382e5d98485f358e0aafc503a133dc964736f6c634300081a0033","linkReferences":{}},"methodIdentifiers":{"claimRewards()":"372500ab","getStakedTokens(address,uint256)":"f5bfbd13","onERC1155BatchReceived(address,address,uint256[],uint256[],bytes)":"bc197c81","onERC1155Received(address,address,uint256,uint256,bytes)":"f23a6e61","owner()":"8da5cb5b","renounceOwnership()":"715018a6","s_nftToken()":"38ceadfc","s_rewardRate()":"3179317d","s_rewardToken()":"6374cc00","s_stakers(address)":"eb095641","setRewardRate(uint256)":"9e447fc6","stake(uint256,uint256)":"7b0472f0","supportsInterface(bytes4)":"01ffc9a7","transferOwnership(address)":"f2fde38b","unstake(uint256,uint256)":"9e2c8a5b"},"id":2}